:020000040000FA
:0400000006EF00F017
:100008000AED00F010EE80F0A8EF0CF00600E1CF4A
:100018006FF0E2CF70F0D9CF71F0DACF72F0F3CF92
:1000280073F0F4CF74F04BC075F04CC076F053C049
:1000380077F054C078F055C079F056C07AF010EED9
:10004800F6F0F29EF2A424D2F294FC0ED66E83A0AF
:1000580002D0010E01D0000EFF0A6B6E83506B18A0
:10006800FE0B6B18836E30EC06F07B06D8A07C067E
:100078007CBE05D07C5002E17B04D8B009D2000ECA
:100088007C6E0A0E7B6EFEC305F0FFC306F06C0E95
:10009800E66E000EE66E05C0E6FF06C0E6FFD7EC8A
:1000A8000AF0E80E4B24D96E010E4C20DA6E000ED1
:1000B800DF6E6C0EE66E000EE66E05C0E6FF06C04B
:1000C800E6FFD7EC0AF0E50E4B24D96E010E4C2062
:1000D800DA6EE8CFDFFF6C0EE66E000EE66E05C046
:1000E800E6FF06C0E6FFD7EC0AF0E60E4B24D96E11
:1000F800010E4C20DA6ED8CFDFFF6C0EE66E000ED4
:10010800E66E05C0E6FF06C0E6FFD7EC0AF0E70E8C
:100118004B24D96E010E4C20DA6EE0CFDFFF036A64
:10012800046A7BD06C0EE66E000EE66E05C0E6FF34
:1001380006C0E6FFD7EC0AF0E00E6B6E010E6C6E9F
:10014800090E6B26000E6C224B506B264C506C220D
:10015800030EE66E000EE66E03C0E6FF04C0E6FF7F
:10016800D7EC0AF04B506B24D96E4C506C20DA6EE9
:10017800FFCFDFFF6C0EE66E000EE66E05C0E6FFF1
:1001880006C0E6FFD7EC0AF0E00E6B6E010E6C6E4F
:100198000B0E6B26000E6C224B506B264C506C22BB
:1001A800030EE66E000EE66E03C0E6FF04C0E6FF2F
:1001B800D7EC0AF04B506B24D96E4C506C20DA6E99
:1001C800FECFDFFF6C0EE66E000EE66E05C0E6FFA2
:1001D80006C0E6FFD7EC0AF0E00E6B6E010E6C6EFF
:1001E8000A0E6B26000E6C224B506B264C506C226C
:1001F800030EE66E000EE66E03C0E6FF04C0E6FFDF
:10020800D7EC0AF04B506B24D96E4C506C20DA6E48
:10021800FDCFDFFF034A042A0600FC50D8A482D78A
:10022800FF0E6B6EFF0E6C6E03C06DF004C06EF0B7
:100238006B506D266C506E226C0EE66E000EE66EEC
:1002480005C0E6FF06C0E6FFD7EC0AF0460E4B24D1
:10025800D96E020E4C20DA6E6DC0DEFF6EC0DDFF77
:1002680022EC0BF04BC0FEF34CC0FFF3FEC305F0CD
:10027800FFC306F0FC6A6C0EE66E000EE66E05C063
:10028800E6FF06C0E6FFD7EC0AF0460E4B24D96E0F
:10029800020E4C20DA6EDE50DE10D8A41BD005000A
:1002A8006C0EE66E000EE66E05C0E6FF06C0E6FFC1
:1002B800D7EC0AF0480E4B24D96E020E4C20DA6EA9
:1002C800DECF6BF0DDCF6CF06BC0FDFF6CC0FEFFC6
:1002D800FF6ADED06C0EE66E000EE66E05C0E6FF25
:1002E80006C0E6FFD7EC0AF0E80E4B24D96E010EE3
:1002F8004C20DA6E010EDF6E6C0EE66E000EE66EB6
:1003080005C0E6FF06C0E6FFD7EC0AF0E50E4B2471
:10031800D96E010E4C20DA6EDF506B6E6B506C0E8E
:10032800E66E000EE66E05C0E6FF06C0E6FFD7ECF7
:100338000AF0E60E4B24D96E010E4C20DA6EDF501F
:10034800D86E6C0EE66E000EE66E05C0E6FF06C0BF
:10035800E6FFD7EC0AF0E70E4B24D96E010E4C20CD
:10036800DA6EDF50E06E6C0EE66E000EE66E05C0CB
:10037800E6FF06C0E6FFD7EC0AF0460E4B24D96E1E
:10038800020E4C20DA6EDECF03F0DDCF04F07CD015
:1003980005006C0EE66E000EE66E05C0E6FF06C0B0
:1003A800E6FFD7EC0AF0E00E6B6E010E6C6E0A0EDB
:1003B8006B26000E6C224B506B264C506C22030EA1
:1003C800E66E000EE66E03C0E6FF04C0E6FFD7EC5B
:1003D8000AF04B506B24D96E4C506C20DA6EDF500B
:1003E800FD6E6C0EE66E000EE66E05C0E6FF06C0FA
:1003F800E6FFD7EC0AF0E00E6B6E010E6C6E0B0E8A
:100408006B26000E6C224B506B264C506C22030E50
:10041800E66E000EE66E03C0E6FF04C0E6FFD7EC0A
:100428000AF04B506B24D96E4C506C20DA6EDF50BA
:10043800FE6E6C0EE66E000EE66E05C0E6FF06C0A8
:10044800E6FFD7EC0AF0E00E6B6E010E6C6E090E3B
:100458006B26000E6C224B506B264C506C22030E00
:10046800E66E000EE66E03C0E6FF04C0E6FFD7ECBA
:100478000AF04B506B24D96E4C506C20DA6EDF506A
:10048800FF6E0306D8A0040603500410D8A480D732
:10049800F28E7AC056F079C055F078C054F077C023
:1004A80053F076C04CF075C04BF074C0F4FF73C0C5
:1004B800F3FF72C0DAFF71C0D9FF70C0E2FF6FC0EE
:1004C800E1FF1100F29EFEC305F0FFC306F005C070
:1004D80055F006C056F06C0E5502F3CF53F0F4CF2A
:1004E80054F05602F3505426E80E5324D96E010EE8
:1004F8005420DA6EFF0EE3CFDFFF05C055F006C0CB
:1005080056F06C0E5502F3CF53F0F4CF54F0560268
:10051800F3505426E50E5324D96E010E5420DA6E9A
:10052800E8CFDFFF05C055F006C056F06C0E550247
:10053800F3CF53F0F4CF54F05602F3505426E60E9E
:100548005324D96E010E5420DA6ED8CFDFFF05C0D0
:1005580055F006C056F06C0E5502F3CF53F0F4CFA9
:1005680054F05602F3505426E70E5324D96E010E68
:100578005420DA6EE0CFDFFF036A046A8DD003C02F
:1005880055F004C056F0030E5502F3CF53F0F4CFE4
:1005980054F05602F350542605C055F006C056F0E4
:1005A8006C0E5502F3CF51F0F4CF52F05602F350CF
:1005B8005226E00E556E010E566E090E5526000E97
:1005C8005622515055265250562253505524D96E12
:1005D80054505620DA6EFFCFDFFF03C055F004C039
:1005E80056F0030E5502F3CF53F0F4CF54F05602F1
:1005F800F350542605C055F006C056F06C0E55024F
:10060800F3CF51F0F4CF52F05602F3505226E00ED9
:10061800556E010E566E0B0E5526000E5622515081
:1006280055265250562253505524D96E54505620B0
:10063800DA6EFECFDFFF03C055F004C056F0030E9C
:100648005502F3CF53F0F4CF54F05602F35054262A
:1006580005C055F006C056F06C0E5502F3CF51F0A8
:10066800F4CF52F05602F3505226E00E556E010EAA
:10067800566E0A0E5526000E5622515055265250D7
:10068800562253505524D96E54505620DA6EFDCF59
:10069800DFFF034A042A0600FC50D8A470D7FF0ED7
:1006A800556EFF0E566E03C053F004C054F05550FB
:1006B80053265650542205C055F006C056F06C0E0D
:1006C8005502F3CF51F0F4CF52F05602F3505226B0
:1006D800460E5124D96E020E5220DA6E53C0DEFF48
:1006E80054C0DDFF06EC0DF04BC0FEF34CC0FFF329
:1006F800FEC305F0FFC306F0FC6A05C055F006C04E
:1007080056F06C0E5502F3CF53F0F4CF54F0560266
:10071800F3505426460E5324D96E020E5420DA6E36
:10072800DE50DE10D8A41ED0050005C055F006C066
:1007380056F06C0E5502F3CF53F0F4CF54F0560236
:10074800F3505426480E5324D96E020E5420DA6E04
:10075800DECF55F0DDCF56F055C0FDFF56C0FEFF89
:10076800FF6AFFD005C055F006C056F06C0E550262
:10077800F3CF53F0F4CF54F05602F3505426E80E5A
:100788005324D96E010E5420DA6E010EDF6E05C0B7
:1007980055F006C056F06C0E5502F3CF53F0F4CF67
:1007A80054F05602F3505426E50E5324D96E010E28
:1007B8005420DA6EDF50566E565005C055F006C00C
:1007C80056F06C0E5502F3CF53F0F4CF54F05602A6
:1007D800F3505426E60E5324D96E010E5420DA6ED7
:1007E800DF50D86E05C055F006C056F06C0E5502A5
:1007F800F3CF53F0F4CF54F05602F3505426E70EDB
:100808005324D96E010E5420DA6EDF50E06E05C015
:1008180055F006C056F06C0E5502F3CF53F0F4CFE6
:1008280054F05602F3505426460E5324D96E020E45
:100838005420DA6EDECF03F0DDCF04F08ED0050051
:1008480003C055F004C056F0030E5502F3CF53F021
:10085800F4CF54F05602F350542605C055F006C0A4
:1008680056F06C0E5502F3CF51F0F4CF52F0560209
:10087800F3505226E00E556E010E566E0A0E55269E
:10088800000E562251505526525056225350552488
:10089800D96E54505620DA6EDF50FD6E03C055F005
:1008A80004C056F0030E5502F3CF53F0F4CF54F0C2
:1008B8005602F350542605C055F006C056F06C0E8B
:1008C8005502F3CF51F0F4CF52F05602F3505226AE
:1008D800E00E556E010E566E0B0E5526000E562272
:1008E800515055265250562253505524D96E5450C3
:1008F8005620DA6EDF50FE6E03C055F004C056F085
:10090800030E5502F3CF53F0F4CF54F05602F350D0
:10091800542605C055F006C056F06C0E5502F3CFAC
:1009280051F0F4CF52F05602F3505226E00E556EB5
:10093800010E566E090E5526000E562251505526A8
:100948005250562253505524D96E54505620DA6EC0
:10095800DF50FF6E0306D8A0040603500410D8A485
:100968006ED7F28EE5521200060EE126000EE22244
:10097800F90EE3CF4BF07E0E4B6405D0000E4B6EA4
:10098800000E4C6EBBD0040E4B6EFB0E4BC0E3FF4B
:10099800000E4B6EFA0E4BC0E3FFFA0EE3CFD9FF01
:1009A800FB0EE3CFDAFFDF50566EFE0E56C0E3FFB4
:1009B800E150FE0FD96EE250DA6EFF0EDA22DF50F8
:1009C8007F0B566EFF0E5626FF0E56C0E3FFFE0E37
:1009D800E350D8B4D3D7E150FE0FD96EE250DA6EA7
:1009E800FF0EDA22DFBE16D0E150FF0FD96EE250BB
:1009F800DA6EFF0EDA22F90EE350DE5CD8B020D0B2
:100A0800FA0EE3CFE6FFE3CFE6FF87EC05F04B50A5
:100A1800D8A4C3D7E150FE0FD96EE250DA6EFF0EAC
:100A2800DA22DF507F0B010DE150FA0FD96EE25048
:100A3800DA6EFF0EDA22F350DE26F450DD22ADD74F
:100A4800E150F90FD96EE250DA6EFF0EDA22FF0E8E
:100A5800E350DE18D8A411D0FA0EE3CFD9FFFB0E6D
:100A6800E3CFDAFFDF8EFA0EE350010F4B6EFB0E79
:100A7800E3CF4CF0000E4C2241D0FA0EE3CFD9FF61
:100A8800FB0EE3CFDAFFF90EE350810FDF6EFA0EAB
:100A9800E350010F556EFB0EE3CF56F0000E5622C1
:100AA800FD0E56C0E3FFFC0E55C0E3FFF90EE35000
:100AB800556E566A010E5526000E5622E150FA0F61
:100AC800D96EE250DA6EFF0EDA225550DE26565005
:100AD800DD22FA0EE3CFD9FFFB0EE3CFDAFFF90EE2
:100AE800E3CF56F0FF0EE3CF55F05650555CDF6E5E
:100AF800FC0EE3CF4BF0FD0EE3CF4CF0F90EE126F0
:100B0800FF0EE2221200050EE126000EE222F90E87
:100B1800E3CFD9FFFA0EE3CFDAFFDF50556E566AFE
:100B2800F90EE3505526FA0EE3505622FC0E56C035
:100B3800E3FFFB0E55C0E3FFF90EE3CFD9FFFA0E32
:100B4800E3CFDAFFDF50566EFE0E56C0E3FFFB0E12
:100B5800E3CFD9FFFC0EE3CFDAFFDF50566EFD0E70
:100B680056C0E3FFFD0EE350D8A402D0000E6ED0AD
:100B7800E150FE0FD96EE250DA6EFF0EDA22DFBEC8
:100B8800F5D7E150FD0FD96EE250DA6EFF0EDA228A
:100B9800DFBEECD7E150FE0FD96EE250DA6EFF0EE1
:100BA800DA22DF507F0B7F0AD8B4E0D7FD0EE3CFFF
:100BB80056F0FE0EE3505624556EFF0E55C0E3FF67
:100BC800FF0EE3CF4BF07F0E4B6436D0F90EE3CF28
:100BD800D9FFFA0EE3CFDAFF7F0EDF6EF90EE3508E
:100BE8007F0F4B6EF90E4BC0E3FF4B6AFA0EE350D2
:100BF8004B204B6EFA0E4BC0E3FFFD0EE350010D88
:100C0800E150FB0FD96EE250DA6EFF0EDA22F35094
:100C1800DE26F450DD22F90EE3CFD9FFFA0EE3CF3A
:100C2800DAFFF90EE3CF56F0FB0EE3CF55F056503E
:100C3800555CDF6E7F0E0AD0F90EE3CFD9FFFA0EAE
:100C4800E3CFDAFFFF0EE3CFDFFFDF504B6EF90E85
:100C5800E126FF0EE2221200E652E652FE0EE36A99
:100C6800FF0EE36A70D0FE0EE3CF55F0FF0EE3CF20
:100C780056F06C0E5502F3CF53F0F4CF54F05602F1
:100C8800F3505426E80E5324D96E010E5420DA6E20
:100C9800020EDE18D8A448D0FE0EE3CF55F0FF0EA2
:100CA800E3CF56F06C0E5502F3CF53F0F4CF54F067
:100CB8005602F35054264A0E5324D96E020E54207D
:100CC800DA6EDE06000EDD5AFE0EE3CF55F0FF0E9B
:100CD800E3CF56F06C0E5502F3CF53F0F4CF54F037
:100CE8005602F35054264A0E5324D96E020E54204D
:100CF800DA6EDE50DE10D8A417D0FE0EE3CF55F022
:100D0800FF0EE3CF56F06C0E5502F3CF53F0F4CF3D
:100D180054F05602F3505426E80E5324D96E010EAF
:100D28005420DA6E000EDF6EFE0EE350010F4B6E9C
:100D3800FE0E4BC0E3FF4B6AFF0EE3504B204B6E99
:100D4800FF0E4BC0E3FF23EEFCF0FE0EE3CF4BF0AB
:100D5800DE504B5CFF0EE3CF4BF0DE504B58D8A073
:100D680082D7E552E5521200FE0EE3CF55F0FF0E92
:100D7800E3CF56F0040E5524D96E000E5620DA6ED5
:100D8800000EDE6E000EDD6EFE0EE3CF55F0FF0E98
:100D9800E3CF56F0060E5524D96E000E5620DA6EB3
:100DA800000EDE6E000EDD6EE150FC0FD96EE250D3
:100DB800DA6EFF0EDA22FE0EE3CF55F0FF0EE3CF18
:100DC80056F0080E5524E96E000E5620EA6EDECF66
:100DD800EEFFDDCFEDFFE150FA0FD96EE250DA6E8B
:100DE800FF0EDA22FE0EE3CF55F0FF0EE3CF56F0EA
:100DF8000A0E5524E96E000E5620EA6EDECFEEFF8D
:100E0800DDCFEDFF020EE66E000EE66EFC0EE3CFC0
:100E180055F0FD0EE3CF56F0080E5524D96E000E9E
:100E28005620DA6EDECF55F0DDCF56F055C0E6FF1E
:100E380056C0E6FFA9EC0BF0000EE66E000EE66E5B
:100E4800FC0EE3CF55F0FD0EE3CF56F00A0E552405
:100E5800D96E000E5620DA6EDECF55F0DDCF56F093
:100E680055C0E6FF56C0E6FFA9EC0BF0FA0EE126E6
:100E7800FF0EE2221200FE0EE3CF55F0FF0EE3CF85
:100E880056F0080E5524D96E000E5620DA6EDECFC5
:100E980055F0DDCF56F055C0E6FF56C0E6FF3FECF3
:100EA80009F0E150FC0FD96EE250DA6EFF0EDA223B
:100EB800FE0EE3CF55F0FF0EE3CF56F0040E552497
:100EC800E96E000E5620EA6EEECF55F0EDCF56F0E3
:100ED800D8905534536E5634546EFE0EE3CF55F009
:100EE800FF0EE3CF56F053505524E96E5450562068
:100EF800EA6EDECFEEFFDDCFEDFFFE0EE3CF55F05D
:100F0800FF0EE3CF56F0040E5524D96E000E56207E
:100F1800DA6EDECF55F0DDCF56F0010E5526000E05
:100F28005622010E5516000E5616FE0EE3CF53F04C
:100F3800FF0EE3CF54F0040E5324D96E000E542054
:100F4800DA6E55C0DEFF56C0DDFFFE0EE3CF55F06A
:100F5800FF0EE3CF56F00A0E5524D96E000E562028
:100F6800DA6EDECF55F0DDCF56F055C0E6FF56C03D
:100F7800E6FFC4EC08F0E552E552E552E5521200EE
:100F8800FE0EE3CF55F0FF0EE3CF56F00A0E5524C0
:100F9800D96E000E5620DA6EDECF55F0DDCF56F052
:100FA80055C0E6FF56C0E6FF3FEC09F0FE0EE3CF62
:100FB80055F0FF0EE3CF56F0060E5524D96E000EFD
:100FC8005620DA6EDECF55F0DDCF56F0D890553486
:100FD800536E5634546EFE0EE3CF55F0FF0EE3CF3A
:100FE80056F053505524D96E54505620DA6EFC0EE4
:100FF800E3CFE9FFFD0EE3CFEAFFDECFEEFFDDCF63
:10100800EDFFFE0EE3CF55F0FF0EE3CF56F0060ED0
:101018005524D96E000E5620DA6EDECF55F0DDCF9E
:1010280056F0010E5526000E5622010E5516000EDA
:101038005616FE0EE3CF53F0FF0EE3CF54F0060E24
:101048005324D96E000E5420DA6E55C0DEFF56C008
:10105800DDFFFE0EE3CF55F0FF0EE3CF56F0080E8E
:101068005524D96E000E5620DA6EDECF55F0DDCF4E
:1010780056F055C0E6FF56C0E6FFC4EC08F0E5524E
:10108800E552E552E55212006C0EE126000EE2220E
:1010980023EEFCF0DECF55F0DDCF56F0010E5526DD
:1010A800000E5622940E55C0E3FF950E56C0E3FF7E
:1010B800E150920FD96EE250DA6EFF0EDA22960EE8
:1010C800E124E96EFF0EE220EA6EDECFEEFFDDCF0F
:1010D800EDFF9C0EE124D96EFF0EE220DA6E000EC1
:1010E800DF6EE150900FD96EE250DA6EFF0EDA2211
:1010F800FC0EE124E96EFF0EE220EA6EDECFEEFF81
:10110800DDCFEDFFFA0EE124D96EFF0EE220DA6E94
:10111800000EDE6E000EDD6EFE0EE124D96EFF0EAF
:10112800E220DA6E000EDE6E000EDD6E940EE12413
:10113800D96EFF0EE220DA6E03EEFCF0EECF55F02A
:10114800EDCF56F06C0E5502F3CF53F0F4CF54F0B8
:101158005602F3505426E00E5324E96E010E542033
:10116800EA6E6B0EDBCFEBFFE806FCE223EEFCF049
:10117800DE2A000EDD22900EE126FF0EE22212008A
:10118800F29EFE0EE3CFD9FFFF0EE3CFDAFFDE2A91
:10119800000EDD22FE0EE3CFD9FFFF0EE3CFDAFF0C
:1011A800010EDBBE64D0010EDB5003E1DE04D8A0E3
:1011B8005ED0FE0EE3CF55F0FF0EE3CF56F00C0ED7
:1011C8005524D96E000E5620DA6EDECF55F0DDCFED
:1011D80056F0D8905534536E5634546EFE0EE35084
:1011E8005326FF0EE3505422020E5324D96E000EEC
:1011F8005420DA6EDECF55F0DDCF56F06C0E550276
:10120800F3CF53F0F4CF54F05602F3505426E80EBF
:101218005324D96E010E5420DA6E000EDF6EFE0ED6
:10122800E3CF55F0FF0EE3CF56F00C0E5524D96EE0
:10123800000E5620DA6EDECF55F0DDCF56F0010EE7
:101248005526000E5622030E5516000E5616FE0E93
:10125800E3CF53F0FF0EE3CF54F00C0E5324D96EB6
:10126800000E5420DA6E55C0DEFF56C0DDFFF28E48
:10127800E552E5521200F29EFE0EE3CFD9FFFF0EB3
:10128800E3CFDAFFDE06000EDD5AFE0EE3CFD9FF0C
:10129800FF0EE3CFDAFF010EDBAE5DD0FE0EE3CF2B
:1012A800D9FFFF0EE3CFDAFF000EDE6E000EDD6E13
:1012B80023EEFEF0FE0EE3CF55F0FF0EE3CF56F01F
:1012C8000A0E5524E96E000E5620EA6EEECF55F050
:1012D800EDCF56F0D8905534536E5634546EFE0EFA
:1012E800E3505326FF0EE3505422020E5324E96EB6
:1012F800000E5420EA6EDECFEEFFDDCFEDFFFE0ECE
:10130800E3CF55F0FF0EE3CF56F00A0E5524D96E01
:10131800000E5620DA6EDECF55F0DDCF56F0010E06
:101328005526000E5622030E5516000E5616FE0EB2
:10133800E3CF53F0FF0EE3CF54F00A0E5324D96ED7
:10134800000E5420DA6E55C0DEFF56C0DDFF050ED4
:10135800E66E66EC02F0F28EE552E5521200E652B5
:10136800E652E652E652040E4B6EFF0E4BC0E3FF08
:10137800000E4B6EFE0E4BC0E3FFFF0E556E010EC6
:10138800566EFC0E55C0E3FFFD0E56C0E3FFFD0E82
:10139800E35007E1FC0EE3CF4BF0800E4B5ED8A084
:1013A80023D0FE0EE3CFD9FFFF0EE3CFDAFF7F0E87
:1013B800DF6EFE0EE3507F0F4B6EFE0E4BC0E3FF59
:1013C8004B6AFF0EE3504B204B6EFF0E4BC0E3FF02
:1013D800E150FC0FD96EE250DA6EFF0EDA22810E70
:1013E800DE26FF0EDD22D3D7FE0EE3CFD9FFFF0E98
:1013F800E3CFDAFFFC0EE3CFDFFFFC0EE3CF55F0BF
:10140800FD0EE3CF56F0FE0EE3CF53F0FF0EE3CF11
:1014180054F055505324D96E56505420DA6E000EAD
:10142800DF6EE552E552E552E5521200E652E65209
:10143800230EE66E000EE66E3FEC09F0FE0EE36A40
:10144800FF0EE36AFE0EE3CF55F0FF0EE3CF56F032
:1014580055500124D96E56500220DA6EDFB00ED0F6
:1014680081A602D0010E01D0000EFF0A566E564624
:101478005646564681505618F70B0CD081AA02D012
:10148800010E01D0000EFF0A566E563A564681509C
:101498005618DF0B5618816EE80EE66E030EE66EE0
:1014A80039EC0CF0FE0EE350010F4B6EFE0E4BC0F4
:1014B800E3FF4B6AFF0EE3504B204B6EFF0E4BC011
:1014C800E3FFFF0EE3BEBED7FF0EE35007E1FE0EBB
:1014D800E3CF4BF0040E4B5ED8A0B4D7310EE66EC6
:1014E800000EE66EC4EC08F0A3D7E652FB0EE3CF7D
:1014F8004BF0FC0EE3504B10D8B44AD0FF0EE36A11
:1015080010D0FB0EE350D890E8344B6EFB0E4BC066
:10151800E3FFFC0EE350E8344B6EFC0E4BC0E3FFD8
:10152800FF0EE32AFC0EE3AEECD7FB0EE3CF55F03B
:10153800FC0EE3CF56F0FD0EE3CF53F0FE0EE3CFE3
:1015480054F05550535C56505458D8A012D0FD0E44
:10155800E3504B6EFB0EE3504B5EFD0E4BC0E3FFBA
:10156800FE0EE3504B6EFC0EE3504B5AFE0E4BC082
:10157800E3FFD890FC0EE332FB0EE332FF0EE3509C
:101588004B6E010E4B5EFF0E4BC0E3FFD8A4CDD7C8
:10159800FD0EE3CF4BF0FE0EE3CF4CF0FB0EE12641
:1015A800FF0EE2221200E652E652FA0EE3CF56F0A0
:1015B800FC0EE3505602FE0EF3CFE3FFFF0EF4CF0E
:1015C800E3FFFB0EE124D96EFF0EE220DA6EDF5056
:1015D800566EFC0EE3505602F3CFF4FFF36AE15067
:1015E800FE0FD96EE250DA6EFF0EDA22F350DE26D5
:1015F800F450DD22FA0EE3CF56F0FD0EE124D96E49
:10160800FF0EE220DA6EDF505602F3CFF4FFF36AE2
:10161800E150FE0FD96EE250DA6EFF0EDA22F35077
:10162800DE26F450DD22FE0EE3CF4BF0FF0EE3CFB3
:101638004CF0FA0EE126FF0EE2221200E652E652C4
:10164800FE0EFEC3E3FFFF0EFFC3E3FF23EEFCF035
:10165800DECF55F0DDCF56F055C0E6FF56C0E6FFA9
:10166800FC0EE350010F556EFD0EE3CF56F0000E51
:10167800562255C0E6FF56C0E6FF79EC0AF0FE0E8A
:101688004BC0E3FFFF0E4CC0E3FFFE0EE3CF55F067
:10169800FF0EE3CF56F06C0E5502F3CF53F0F4CFA4
:1016A80054F05602F3505426E80E5324D96E010E16
:1016B8005420DA6EDF50D8A4C9D7FE0EE3CF4BF022
:1016C800FF0EE3CF4CF0E552E5521200E652E65227
:1016D800310EE66E000EE66E3FEC09F0FE0EE36A90
:1016E800FF0EE36AFE0EE3CF55F0FF0EE3CF56F090
:1016F80055500124D96E56500220DA6EFE0EE35082
:10170800010FDF6EFE0EE350010F4B6EFE0E4BC055
:10171800E3FF4B6AFF0EE3504B204B6EFF0E4BC0AE
:10172800E3FFFF0EE3BEDED7FF0EE35007E1FE0E38
:10173800E3CF4BF0040E4B5ED8A0D4D7230EE66E51
:10174800000EE66EC4EC08F0C3D7F29EE150FC0F21
:10175800D96EE250DA6EFF0EDA22FE0EE3CFE9FF11
:10176800FF0EE3CFEAFFDECFEEFFDDCFEDFFFE0E8B
:10177800E3CF55F0FF0EE3CF56F00A0E5524D96E8D
:10178800000E5620DA6E000EDE6E000EDD6EFE0EC6
:10179800E3CF55F0FF0EE3CF56F00C0E5524D96E6B
:1017A800000E5620DA6E000EDE6E000EDD6EF28E32
:1017B800E552E552E552E5521200010E936E010E14
:1017C800E66E000EE66E310EE66E000EE66EA9ECD1
:1017D8000BF0000EE66E000EE66E230EE66E000EAF
:1017E800E66EA9EC0BF0070EE66E000EE66E150E1F
:1017F800E66E000EE66E3F0EE66E000EE66EB8EC84
:1018080006F0050EE66EB8EC04F04BC001F04CC0D3
:1018180002F01200C7EC0CF0E1EC0BF0FEEC0CF05F
:10182800F5EC0CF0100EE66E190EE66E030EE66E81
:10183800000EE66E48EC08F0C40EE66E180EE66E72
:10184800040EE66E000EE66E48EC08F0C00EE66E7A
:10185800190EE66E050EE66E000EE66E48EC08F010
:10186800000EE66E66EC02F0FFD7F29EE150FE0F26
:10187800D96EE250DA6EFF0EDA2203EEFEF0EECFFA
:1018880055F0EDCF56F06C0E5502F3CF53F0F4CF70
:1018980054F05602F35054264A0E5324E96E020EB1
:1018A8005420EA6EDECFEEFFDDCFEDFF020EE66ECE
:1018B80066EC02F0F28EE552E5521200E652E6526C
:1018C800FE0EE1244B6EFF0EE2204C6E4BC0E6FF8D
:1018D8004CC0E6FF3F0EE66E000EE66EC4EC07F065
:1018E80081A802D0010E01D0000EFF0A566E563AAA
:1018F80081505618EF0B5618816ED00EE66E070E03
:10190800E66E39EC0CF0DCD7010EE66E000EE66EE2
:101918003F0EE66E000EE66E3FEC07F081A602D0A1
:10192800010E01D0000EFF0A566E56465646564620
:1019380081505618F70B5618816EE80EE66E030EA6
:10194800E66E39EC0CF0E0D7160EF66E1A0EF76E4E
:10195800000EF86E0900F5CF7BF00900F5CF7CF09A
:1019680001EEE0F024EE20F0EE6ADD50D950FCE103
:10197800DA50FAE100EE01F04A0EEE6AE806FDE1FF
:1019880000010EEF0CF0B3EC09F0000EE8CFFEF307
:10199800000EE8CFFFF3000EE8CFFCF3000EE8CF0F
:1019A800FDF3120EE66E1A0EE66E000EE66E000EDF
:1019B800E66E48EC08F0120081AA02D0010E01D0B0
:1019C800000EFF0A566E563A564681505618DF0BDF
:1019D8005618816EE80EE66E030EE66E39EC0CF0D2
:1019E800EBD7D59AD596070ED512F28CF28AFC0E53
:1019F800D66E12009590F28EF288F288F292F19EDD
:101A0800F19C120022EC0BF0120000F0FED70A0045
:020000040020DA
:08000000FFFFFFFFFFFFFFFF00
:020000040030CA
:0E000000FF071F1EFF8185FF0FC00FE00F409E
:00000001FF
