:020000040000FA
:0400000006EF00F017
:100008000AED00F015EE38F0C4EF0AF00600E1CF73
:1000180069F0E2CF6AF0D9CF6BF0DACF6CF0F3CFAA
:100028006DF0F4CF6EF047C06FF048C070F04FC06D
:1000380071F050C072F051C073F052C074F015EEF8
:100048007CF0F29EF2A42CD2F294FC0ED66E83A021
:1000580002D0010E01D0000EFF0A676E83506718A8
:10006800FE0B6718836ECBEC04F07506D8A07606F5
:1000780076BE05D0765002E17504D8B011D2000ED4
:10008800766E0A0E756E36C309F037C30AF06E0E27
:10009800E66E000EE66E09C0E6FF0AC0E6FF19EC40
:1000A80009F0A80E4724D96E000E4820DA6E000E1B
:1000B800DF6E6E0EE66E000EE66E09C0E6FF0AC041
:1000C800E6FF19EC09F0A50E4724D96E000E48206A
:1000D800DA6EE8CFDFFF6E0EE66E000EE66E09C040
:1000E800E6FF0AC0E6FF19EC09F0A60E4724D96E10
:1000F800000E4820DA6ED8CFDFFF6E0EE66E000ED7
:10010800E66E09C0E6FF0AC0E6FF19EC09F0A70E83
:100118004724D96E000E4820DA6EE0CFDFFF076A69
:10012800086A7BD06E0EE66E000EE66E09C0E6FF2A
:100138000AC0E6FF19EC09F0A00E676E000E686EA3
:10014800090E6726000E6822475067264850682225
:10015800030EE66E000EE66E07C0E6FF08C0E6FF77
:1001680019EC09F047506724D96E48506820DA6EB8
:10017800FFCFDFFF6E0EE66E000EE66E09C0E6FFEB
:100188000AC0E6FF19EC09F0A00E676E000E686E53
:100198000B0E6726000E68224750672648506822D3
:1001A800030EE66E000EE66E07C0E6FF08C0E6FF27
:1001B80019EC09F047506724D96E48506820DA6E68
:1001C800FECFDFFF6E0EE66E000EE66E09C0E6FF9C
:1001D8000AC0E6FF19EC09F0A00E676E000E686E03
:1001E8000A0E6726000E6822475067264850682284
:1001F800030EE66E000EE66E07C0E6FF08C0E6FFD7
:1002080019EC09F047506724D96E48506820DA6E17
:10021800FDCFDFFF074A082A0600FC50D8A482D782
:100228006E0EE66E000EE66E09C0E6FF0AC0E6FF37
:1002380019EC09F0060E4724D96E010E4820DA6E33
:1002480007C0DEFF08C0DDFF64EC09F047C036F3E5
:1002580048C037F3FC6A36C309F037C30AF06E0E9C
:10026800E66E000EE66E09C0E6FF0AC0E6FF19EC6E
:1002780009F0080E4724D96E010E4820DA6EDE50C8
:10028800DE10D8A42FD06E0EE66E000EE66E09C002
:10029800E6FF0AC0E6FF19EC09F0080E4724D96EFC
:1002A800010E4820DA6E010EDE6E000EDD6E0500CE
:1002B8006E0EE66E000EE66E09C0E6FF0AC0E6FFA7
:1002C80019EC09F00A0E4724D96E010E4820DA6E9F
:1002D800DECF67F0DDCF68F067C0FDFF68C0FEFFC6
:1002E800FF6ADED06E0EE66E000EE66E09C0E6FF0F
:1002F8000AC0E6FF19EC09F0A80E4724D96E000ED3
:100308004820DA6E010EDF6E6E0EE66E000EE66EA7
:1003180009C0E6FF0AC0E6FF19EC09F0A50E47245C
:10032800D96E000E4820DA6EDF50676E67506E0E89
:10033800E66E000EE66E09C0E6FF0AC0E6FF19EC9D
:1003480009F0A60E4724D96E000E4820DA6EDF5059
:10035800D86E6E0EE66E000EE66E09C0E6FF0AC0A5
:10036800E6FF19EC09F0A70E4724D96E000E4820C5
:10037800DA6EDF50E06E6E0EE66E000EE66E09C0B5
:10038800E6FF0AC0E6FF19EC09F0060E4724D96E0D
:10039800010E4820DA6EDECF07F0DDCF08F07CD002
:1003A80005006E0EE66E000EE66E09C0E6FF0AC096
:1003B800E6FF19EC09F0A00E676E000E686E070ED6
:1003C8006726000E68224750672648506822030EA9
:1003D800E66E000EE66E07C0E6FF08C0E6FF19EC01
:1003E80009F047506724D96E48506820DA6EDF500C
:1003F800FD6E6E0EE66E000EE66E09C0E6FF0AC0E0
:10040800E6FF19EC09F0A00E676E000E686E080E84
:100418006726000E68224750672648506822030E58
:10042800E66E000EE66E07C0E6FF08C0E6FF19ECB0
:1004380009F047506724D96E48506820DA6EDF50BB
:10044800FE6E6E0EE66E000EE66E09C0E6FF0AC08E
:10045800E6FF19EC09F0A00E676E000E686E060E36
:100468006726000E68224750672648506822030E08
:10047800E66E000EE66E07C0E6FF08C0E6FF19EC60
:1004880009F047506724D96E48506820DA6EDF506B
:10049800FF6E0706D8A0080607500810D8A480D712
:1004A800F28E74C052F073C051F072C050F071C037
:1004B8004FF070C048F06FC047F06EC0F4FF6DC0D9
:1004C800F3FF6CC0DAFF6BC0D9FF6AC0E2FF69C0F6
:1004D800E1FF1100F29E36C309F037C30AF009C0E4
:1004E80051F00AC052F06E0E5102F3CF4FF0F4CF24
:1004F80050F05202F3505026A80E4F24D96E000E29
:100508005020DA6EFF0EE3CFDFFF09C051F00AC0BA
:1005180052F06E0E5102F3CF4FF0F4CF50F052026A
:10052800F3505026A50E4F24D96E000E5020DA6ED7
:10053800E8CFDFFF09C051F00AC052F06E0E510239
:10054800F3CF4FF0F4CF50F05202F3505026A60EDE
:100558004F24D96E000E5020DA6ED8CFDFFF09C0C5
:1005680051F00AC052F06E0E5102F3CF4FF0F4CFA3
:1005780050F05202F3505026A70E4F24D96E000EA9
:100588005020DA6EE0CFDFFF076A086A8DD007C017
:1005980051F008C052F0030E5102F3CF4FF0F4CFE0
:1005A80050F05202F350502609C051F00AC052F0E0
:1005B8006E0E5102F3CF4DF0F4CF4EF05202F350CD
:1005C8004E26A00E516E000E526E090E5126000ED8
:1005D80052224D5051264E5052224F505124D96E1E
:1005E80050505220DA6EFFCFDFFF07C051F008C02D
:1005F80052F0030E5102F3CF4FF0F4CF50F05202F5
:10060800F350502609C051F00AC052F06E0E510244
:10061800F3CF4DF0F4CF4EF05202F3504E26A00E19
:10062800516E000E526E0B0E5126000E52224D5086
:1006380051264E5052224F505124D96E50505220BC
:10064800DA6EFECFDFFF07C051F008C052F0030E8C
:100658005102F3CF4FF0F4CF50F05202F35050262E
:1006680009C051F00AC052F06E0E5102F3CF4DF09E
:10067800F4CF4EF05202F3504E26A00E516E000EEB
:10068800526E0A0E5126000E52224D5051264E50DF
:1006980052224F505124D96E50505220DA6EFDCF5D
:1006A800DFFF074A082A0600FC50D8A470D709C003
:1006B80051F00AC052F06E0E5102F3CF4FF0F4CF52
:1006C80050F05202F3505026060E4F24D96E010EF8
:1006D8005020DA6E07C0DEFF08C0DDFF49EC0BF0E2
:1006E80047C036F348C037F3FC6A36C309F037C34E
:1006F8000AF009C051F00AC052F06E0E5102F3CF51
:100708004FF0F4CF50F05202F3505026080E4F2409
:10071800D96E010E5020DA6EDE50DE10D8A435D026
:1007280009C051F00AC052F06E0E5102F3CF4FF0DB
:10073800F4CF50F05202F3505026080E4F24D96ED1
:10074800010E5020DA6E010EDE6E000EDD6E050021
:1007580009C051F00AC052F06E0E5102F3CF4FF0AB
:10076800F4CF50F05202F35050260A0E4F24D96E9F
:10077800010E5020DA6EDECF51F0DDCF52F051C0BD
:10078800FDFF52C0FEFFFF6AFFD009C051F00AC04A
:1007980052F06E0E5102F3CF4FF0F4CF50F05202E8
:1007A800F3505026A80E4F24D96E000E5020DA6E52
:1007B800010EDF6E09C051F00AC052F06E0E5102F0
:1007C800F3CF4FF0F4CF50F05202F3505026A50E5D
:1007D8004F24D96E000E5020DA6EDF50526E525000
:1007E80009C051F00AC052F06E0E5102F3CF4FF01B
:1007F800F4CF50F05202F3505026A60E4F24D96E73
:10080800000E5020DA6EDF50D86E09C051F00AC0D1
:1008180052F06E0E5102F3CF4FF0F4CF50F0520267
:10082800F3505026A70E4F24D96E000E5020DA6ED2
:10083800DF50E06E09C051F00AC052F06E0E51024E
:10084800F3CF4FF0F4CF50F05202F3505026060E7B
:100858004F24D96E010E5020DA6EDECF07F0DDCFBF
:1008680008F08ED0050007C051F008C052F0030E02
:100878005102F3CF4FF0F4CF50F05202F35050260C
:1008880009C051F00AC052F06E0E5102F3CF4DF07C
:10089800F4CF4EF05202F3504E26A00E516E000EC9
:1008A800526E070E5126000E52224D5051264E50C0
:1008B80052224F505124D96E50505220DA6EDF50D8
:1008C800FD6E07C051F008C052F0030E5102F3CF7D
:1008D8004FF0F4CF50F05202F350502609C051F0B7
:1008E8000AC052F06E0E5102F3CF4DF0F4CF4EF025
:1008F8005202F3504E26A00E516E000E526E080E94
:100908005126000E52224D5051264E5052224F5021
:100918005124D96E50505220DA6EDF50FE6E07C057
:1009280051F008C052F0030E5102F3CF4FF0F4CF4C
:1009380050F05202F350502609C051F00AC052F04C
:100948006E0E5102F3CF4DF0F4CF4EF05202F35039
:100958004E26A00E516E000E526E060E5126000E47
:1009680052224D5051264E5052224F505124D96E8A
:1009780050505220DA6EDF50FF6E0706D8A00806E6
:1009880007500810D8A46ED7F28EE5521200E6522E
:10099800E652FE0EE36AFF0EE36A70D0FE0EE3CF66
:1009A80051F0FF0EE3CF52F06E0E5102F3CF4FF02D
:1009B800F4CF50F05202F3505026A80E4F24D96EAF
:1009C800000E5020DA6E020EDE18D8A448D0FE0EB3
:1009D800E3CF51F0FF0EE3CF52F06E0E5102F3CF8A
:1009E8004FF0F4CF50F05202F35050260C0E4F2423
:1009F800D96E010E5020DA6EDE06000EDD5AFE0EAC
:100A0800E3CF51F0FF0EE3CF52F06E0E5102F3CF59
:100A18004FF0F4CF50F05202F35050260C0E4F24F2
:100A2800D96E010E5020DA6EDE50DE10D8A417D031
:100A3800FE0EE3CF51F0FF0EE3CF52F06E0E5102DF
:100A4800F3CF4FF0F4CF50F05202F3505026A80ED7
:100A58004F24D96E000E5020DA6E000EDF6EFE0EA7
:100A6800E350010F476EFE0E47C0E3FF476AFF0ED3
:100A7800E3504720476EFF0E47C0E3FF23EE34F0F4
:100A8800FE0EE3CF47F0DE50475CFF0EE3CF47F0A2
:100A9800DE504758D8A082D7E552E55212006E0EB4
:100AA800E126000EE22223EE34F0DECF51F0DDCF56
:100AB80052F0010E5126000E5222920E51C0E3FF51
:100AC800930E52C0E3FFE150900FD96EE250DA6EF8
:100AD800FF0EDA22940EE124E96EFF0EE220EA6EA0
:100AE800DECFEEFFDDCFEDFF9A0EE124D96EFF0ECB
:100AF800E220DA6E000EDF6EE1508E0FD96EE25002
:100B0800DA6EFF0EDA22FC0EE124E96EFF0EE22017
:100B1800EA6EDECFEEFFDDCFEDFFF80EE124D96EF1
:100B2800FF0EE220DA6E000EDE6E000EDD6EFE0EA7
:100B3800E124D96EFF0EE220DA6E000EDE6E000EA2
:100B4800DD6EFA0EE124D96EFF0EE220DA6E000E99
:100B5800DE6E000EDD6E920EE124D96EFF0EE220ED
:100B6800DA6E03EE34F0EECF51F0EDCF52F06E0EA8
:100B78005102F3CF4FF0F4CF50F05202F350502609
:100B8800A00E4F24E96E000E5020EA6E6D0EDBCFEA
:100B9800EBFFE806FCE223EE34F0DE2A000EDD224D
:100BA8008E0EE126FF0EE2221200FE0EE3CF51F078
:100BB800FF0EE3CF52F0080E5124D96E000E5220DA
:100BC800DA6EDECF51F0DDCF52F051C0E6FF52C0F1
:100BD800E6FFE4EC07F0E150FC0FD96EE250DA6E64
:100BE800FF0EDA22FE0EE3CF51F0FF0EE3CF52F0F4
:100BF800040E5124E96E000E5220EA6EEECF51F039
:100C0800EDCF52F0D89051344F6E5234506EFE0EE4
:100C1800E3CF51F0FF0EE3CF52F04F505124E96E6D
:100C280050505220EA6EDECFEEFFDDCFEDFFFE0E14
:100C3800E3CF51F0FF0EE3CF52F0040E5124D96EEA
:100C4800000E5220DA6EDECF51F0DDCF52F0010EE9
:100C58005126000E5222010E5116000E5216FE0E9B
:100C6800E3CF4FF0FF0EE3CF50F0040E4F24D96EC0
:100C7800000E5020DA6E51C0DEFF52C0DDFFFE0EBE
:100C8800E3CF51F0FF0EE3CF52F00A0E5124D96E94
:100C9800000E5220DA6EDECF51F0DDCF52F051C097
:100CA800E6FF52C0E6FFE2EC06F0E552E552E552F7
:100CB800E5521200FE0EE3CF51F0FF0EE3CF52F0E3
:100CC8000A0E5124D96E000E5220DA6EDECF51F092
:100CD800DDCF52F051C0E6FF52C0E6FFE4EC07F06A
:100CE800FE0EE3CF51F0FF0EE3CF52F0060E512473
:100CF800D96E000E5220DA6EDECF51F0DDCF52F001
:100D0800D89051344F6E5234506EFE0EE3CF51F0EE
:100D1800FF0EE3CF52F04F505124D96E505052205D
:100D2800DA6EFC0EE3CFE9FFFD0EE3CFEAFFDECF7C
:100D3800EEFFDDCFEDFFFE0EE3CF51F0FF0EE3CF68
:100D480052F0060E5124D96E000E5220DA6EDECF14
:100D580051F0DDCF52F0010E5126000E5222010E45
:100D68005116000E5216FE0EE3CF4FF0FF0EE3CFE2
:100D780050F0060E4F24D96E000E5020DA6E51C086
:100D8800DEFF52C0DDFFFE0EE3CF51F0FF0EE3CFD2
:100D980052F0080E5124D96E000E5220DA6EDECFC2
:100DA80051F0DDCF52F051C0E6FF52C0E6FFE2EC51
:100DB80006F0E552E552E552E5521200F29EFE0EAB
:100DC800E3CFD9FFFF0EE3CFDAFFDE2A000EDD22E4
:100DD800FE0EE3CFD9FFFF0EE3CFDAFF010EDBBE35
:100DE80006D0010EDB5067E1DE04D8B064D0FE0EF9
:100DF800E3CF51F0FF0EE3CF52F00E0E5124D96E1F
:100E0800000E5220DA6EDECF51F0DDCF52F0D890CE
:100E180051344F6E5234506EFE0EE3504F26FF0E83
:100E2800E3505022020E4F24D96E000E5020DA6E85
:100E3800DECF51F0DDCF52F06E0E5102F3CF4FF0FE
:100E4800F4CF50F05202F3505026A80E4F24D96E1A
:100E5800000E5020DA6E000EDF6E050EE66E000EF4
:100E6800E66EFC0EE3CF51F0FD0EE3CF52F00E0E0E
:100E78005124D96E000E5220DA6EDECF51F0DDCF4C
:100E880052F0010E5126000E522251C0E6FF52C008
:100E9800E6FFBBEC08F0FE0EE3CF51F0FF0EE3CF08
:100EA80052F00E0E5124D96E000E5220DA6E47C051
:100EB800DEFF48C0DDFFF28EE552E5521200E65231
:100EC800E652E652E652900EE66E000EE66EE4EC4E
:100ED80007F0839E82A609D00304D8A402D0020E8C
:100EE80003D082A602D0030E036E82A809D00404A0
:100EF800D8A402D0020E03D082A802D0030E046E3A
:100F080082AA09D00504D8A402D0020E03D082AA6E
:100F180002D0030E056EFE0EE36AFF0EE36AFC0EB6
:100F2800E36AFD0EE36AFC0EE3CF51F0FD0EE3CF5A
:100F380052F0030E5124D96E000E5220DA6EDE04F0
:100F4800D8A40FD0FE0EE350010F476EFE0E47C027
:100F5800E3FF476AFF0EE3504720476EFF0E47C086
:100F6800E3FFFE0EE3CFE6FFE3CFE6FF3B0EE66EC0
:100F7800000EE66ED9EC05F0838EFC0EE350010FEF
:100F8800476EFC0E47C0E3FF476AFD0EE35047205B
:100F9800476EFD0E47C0E3FFFD0EE3BEC4D7FD0E4E
:100FA800E35007E1FC0EE3CF47F0030E475ED8A0FD
:100FB800BAD7800EE66E000EE66EE2EC06F083D736
:100FC800F29EFE0EE3CFD9FFFF0EE3CFDAFFDE0677
:100FD800000EDD5AFE0EE3CFD9FFFF0EE3CFDAFF96
:100FE800010EDBAE59D023EE36F0FE0EE3CF51F002
:100FF800FF0EE3CF52F00C0E5124E96E000E522082
:10100800EA6EEECF51F0EDCF52F0D89051344F6EDA
:101018005234506EFE0EE3504F26FF0EE35050221E
:10102800020E4F24E96E000E5020EA6EDECFEEFF6E
:10103800DDCFEDFF050EE66E000EE66EFC0EE3CF8B
:1010480051F0FD0EE3CF52F00C0E5124D96E000E74
:101058005220DA6EDECF51F0DDCF52F0010E51266C
:10106800000E522251C0E6FF52C0E6FFBBEC08F06A
:10107800FE0EE3CF51F0FF0EE3CF52F00C0E5124D9
:10108800D96E000E5220DA6E47C0DEFF48C0DDFF81
:10109800050EE66E6EEC02F0F28EE552E552120095
:1010A800E652E652E652E652030E476EFF0E47C07E
:1010B800E3FF380E476EFE0E47C0E3FFFF0E516E8A
:1010C800010E526EFC0E51C0E3FFFD0E52C0E3FF4D
:1010D800FD0EE35007E1FC0EE3CF47F0800E475EBC
:1010E800D8A023D0FE0EE3CFD9FFFF0EE3CFDAFF5F
:1010F8007F0EDF6EFE0EE3507F0F476EFE0E47C079
:10110800E3FF476AFF0EE3504720476EFF0E47C0D4
:10111800E3FFE150FC0FD96EE250DA6EFF0EDA22DF
:10112800810EDE26FF0EDD22D3D7FE0EE3CFD9FFD8
:10113800FF0EE3CFDAFFFC0EE3CFDFFFFC0EE3CFB9
:1011480051F0FD0EE3CF52F0FE0EE3CF4FF0FF0E4D
:10115800E3CF50F051504F24D96E52505020DA6EE0
:10116800000EDF6EE552E552E552E5521200E652F6
:10117800FB0EE3CF47F0FC0EE3504710D8B44AD03B
:10118800FF0EE36A10D0FB0EE350D890E834476EA8
:10119800FB0E47C0E3FFFC0EE350E834476EFC0E3D
:1011A80047C0E3FFFF0EE32AFC0EE3AEECD7FB0ECD
:1011B800E3CF51F0FC0EE3CF52F0FD0EE3CF4FF03A
:1011C800FE0EE3CF50F051504F5C52505058D8A00B
:1011D80012D0FD0EE350476EFB0EE350475EFD0E46
:1011E80047C0E3FFFE0EE350476EFC0EE350475A3C
:1011F800FE0E47C0E3FFD890FC0EE332FB0EE3324D
:10120800FF0EE350476E010E475EFF0E47C0E3FF37
:10121800D8A4CDD7FD0EE3CF47F0FE0EE3CF48F0BC
:10122800FB0EE126FF0EE2221200E652E652FA0E0B
:10123800E3CF52F0FC0EE3505202FE0EF3CFE3FF71
:10124800FF0EF4CFE3FFFB0EE124D96EFF0EE22080
:10125800DA6EDF50526EFC0EE3505202F3CFF4FF09
:10126800F36AE150FE0FD96EE250DA6EFF0EDA2211
:10127800F350DE26F450DD22FA0EE3CF52F0FD0ED5
:10128800E124D96EFF0EE220DA6EDF505202F3CF6E
:10129800F4FFF36AE150FE0FD96EE250DA6EFF0EEA
:1012A800DA22F350DE26F450DD22FE0EE3CF47F0BB
:1012B800FF0EE3CF48F0FA0EE126FF0EE2221200FD
:1012C800E652E652FE0E36C3E3FFFF0E37C3E3FFD6
:1012D80023EE34F0DECF51F0DDCF52F051C0E6FFFF
:1012E80052C0E6FFFC0EE350010F516EFD0EE3CF36
:1012F80052F0000E522251C0E6FF52C0E6FFBBEC8E
:1013080008F0FE0E47C0E3FFFF0E48C0E3FFFE0EE5
:10131800E3CF51F0FF0EE3CF52F06E0E5102F3CF40
:101328004FF0F4CF50F05202F3505026A80E4F243D
:10133800D96E000E5020DA6EDF50D8A4C9D7FE0E41
:10134800E3CF47F0FF0EE3CF48F0E552E552120035
:10135800010E936E7F0E946E0E0E956E828E8388AC
:10136800838A838C838E8182010EE66E000EE66E80
:101378002B0EE66E000EE66E2DEC0AF0000EE66E01
:10138800000EE66E1B0EE66E000EE66E2DEC0AF001
:10139800000EE66E000EE66E0B0EE66E000EE66EB2
:1013A8002DEC0AF0000EE66E000EE66E900EE66E6C
:1013B800000EE66E2DEC0AF0000EE66E000EE66EEC
:1013C800800EE66E000EE66E2DEC0AF0016A026AE7
:1013D800066A120009EC0BF0ACEC09F041EC0BF0DA
:1013E80038EC0BF0CA0EE66E140EE66E050EE66ECD
:1013F800000EE66E53EC05F0440EE66E160EE66E31
:10140800040EE66E000EE66E53EC05F03A0EE66E3C
:10141800150EE66E050EE66E000EE66E53EC05F050
:10142800C60EE66E0E0EE66E050EE66E000EE66E53
:1014380053EC05F0D20EE66E150EE66E040EE66E5F
:10144800000EE66E53EC05F0000EE66E6EEC02F050
:10145800FFD7F29EE150FC0FD96EE250DA6EFF0E14
:10146800DA22FE0EE3CFE9FFFF0EE3CFEAFFDECF7D
:10147800EEFFDDCFEDFFFE0EE3CF51F0FF0EE3CF21
:1014880052F00C0E5124D96E000E5220DA6E000E66
:10149800DE6E000EDD6EFE0EE3CF51F0FF0EE3CFE1
:1014A80052F00E0E5124D96E000E5220DA6E000E44
:1014B800DE6E000EDD6EF28EE552E552E552E55223
:1014C8001200E6522B0EE66E000EE66EE4EC07F014
:1014D80083981FD082BCFED701C051F002C052F0E1
:1014E800030E5124D96E000E5220DA6EFF0EE3CFA0
:1014F800DFFF01C051F002C052F0030E5124D96E33
:10150800000E5220DA6E000EDF6E014A022A010E2A
:10151800066E02BEDFD7025004E1040E015CD8A0BB
:10152800D9D71B0EE66E000EE66EE2EC06F0838855
:10153800C9D70B0EE66E000EE66EE4EC07F0839C4E
:1015480083B202D0036A04D083A202D0010E036ED4
:1015580083B402D0046A04D083A402D0010E046EBE
:1015680083B602D0056A04D083A602D0010E056EA8
:10157800838C900EE66E000EE66EE2EC06F0D9D78C
:101588009C0EF66E160EF76E000EF86E0900F5CF7B
:1015980075F00900F5CF76F000EEA0F024EE98F093
:1015A800EE6ADD50D950FCE1DA50FAE100EE80F045
:1015B800200EEE6AE806FDE100EE01F0460EEE6A46
:1015C800E806FDE10001EEEF09F0E652800EE66E56
:1015D800000EE66EE4EC07F08192FF0EE124476E00
:1015E800FF0EE220486E47C0E6FF48C0E6FF3B0E0C
:1015F800E66E000EE66E5EEC06F02B0EE66E000E52
:10160800E66EE2EC06F08182E1D754EC08F0000EB9
:10161800E8CF36F3000EE8CF37F3000EE8CF34F307
:10162800000EE8CF35F3980EE66E160EE66E000E45
:10163800E66E000EE66E53EC05F012001B0EE66E29
:10164800000EE66EE4EC07F0839A01D000F082A069
:1016580082B202D082A4FAD7838A0B0EE66E000EFD
:10166800E66EE2EC06F0EAD7D59AD596070ED512C3
:10167800F28CF28AFC0ED66E12009590F28EF288E9
:10168800F288F292F19EF19C120064EC09F01200CB
:0616980000F0FED70A007D
:020000040020DA
:08000000FFFFFFFFFFFFFFFF00
:020000040030CA
:0E000000FF071F1EFF8185FF0FC00FE00F409E
:00000001FF
