:020000040000FA
:0400000006EF00F017
:100008000AED00F014EEAEF0C1EF0CF00600E1CFFF
:1000180067F0E2CF68F0D9CF69F0DACF6AF0F3CFB2
:100028006BF0F4CF6CF043C06DF044C06EF04BC081
:100038006FF04CC070F04DC071F04EC072F015EE0C
:1000480020F0F29EF2A424D2F294FC0ED66E83A085
:1000580002D0010E01D0000EFF0A636E83506318B0
:10006800FE0B6318836E30EC06F07306D8A0740696
:1000780074BE05D0745002E17304D8B009D2000EE2
:10008800746E0A0E736EACC20BF0ADC20CF06C0E3F
:10009800E66E000EE66E0BC0E6FF0CC0E6FFD7EC7E
:1000A8000AF0960E4324D96E000E4420DA6E000E34
:1000B800DF6E6C0EE66E000EE66E0BC0E6FF0CC03F
:1000C800E6FFD7EC0AF0930E4324D96E000E4420C5
:1000D800DA6EE8CFDFFF6C0EE66E000EE66E0BC040
:1000E800E6FF0CC0E6FFD7EC0AF0940E4324D96E65
:1000F800000E4420DA6ED8CFDFFF6C0EE66E000EDD
:10010800E66E0BC0E6FF0CC0E6FFD7EC0AF0950ED2
:100118004324D96E000E4420DA6EE0CFDFFF096A6F
:100128000A6A7BD06C0EE66E000EE66E0BC0E6FF28
:100138000CC0E6FFD7EC0AF08E0E636E000E646EFC
:10014800090E6326000E642243506326445064223D
:10015800030EE66E000EE66E09C0E6FF0AC0E6FF73
:10016800D7EC0AF043506324D96E44506420DA6E09
:10017800FFCFDFFF6C0EE66E000EE66E0BC0E6FFEB
:100188000CC0E6FFD7EC0AF08E0E636E000E646EAC
:100198000B0E6326000E64224350632644506422EB
:1001A800030EE66E000EE66E09C0E6FF0AC0E6FF23
:1001B800D7EC0AF043506324D96E44506420DA6EB9
:1001C800FECFDFFF6C0EE66E000EE66E0BC0E6FF9C
:1001D8000CC0E6FFD7EC0AF08E0E636E000E646E5C
:1001E8000A0E6326000E642243506326445064229C
:1001F800030EE66E000EE66E09C0E6FF0AC0E6FFD3
:10020800D7EC0AF043506324D96E44506420DA6E68
:10021800FDCFDFFF094A0A2A0600FC50D8A482D77E
:10022800FF0E636EFF0E646E09C065F00AC066F0CB
:1002380063506526645066226C0EE66E000EE66E0C
:100248000BC0E6FF0CC0E6FFD7EC0AF0F40E43241F
:10025800D96E000E4420DA6E65C0DEFF66C0DDFF91
:1002680022EC0BF043C0ACF244C0ADF2ACC20BF0D0
:10027800ADC20CF0FC6A6C0EE66E000EE66E0BC0AA
:10028800E6FF0CC0E6FFD7EC0AF0F40E4324D96E63
:10029800000E4420DA6EDE50DE10D8A41BD0050014
:1002A8006C0EE66E000EE66E0BC0E6FF0CC0E6FFB5
:1002B800D7EC0AF0F60E4324D96E000E4420DA6E0D
:1002C800DECF63F0DDCF64F063C0FDFF64C0FEFFE6
:1002D800FF6ADED06C0EE66E000EE66E0BC0E6FF1F
:1002E8000CC0E6FFD7EC0AF0960E4324D96E000E38
:1002F8004420DA6E010EDF6E6C0EE66E000EE66EBE
:100308000BC0E6FF0CC0E6FFD7EC0AF0930E4324BF
:10031800D96E000E4420DA6EDF50636E63506C0EA7
:10032800E66E000EE66E0BC0E6FF0CC0E6FFD7ECEB
:100338000AF0940E4324D96E000E4420DA6EDF5082
:10034800D86E6C0EE66E000EE66E0BC0E6FF0CC0B3
:10035800E6FFD7EC0AF0950E4324D96E000E442030
:10036800DA6EDF50E06E6C0EE66E000EE66E0BC0C5
:10037800E6FF0CC0E6FFD7EC0AF0F40E4324D96E72
:10038800000E4420DA6EDECF09F0DDCF0AF07CD013
:1003980005006C0EE66E000EE66E0BC0E6FF0CC0A4
:1003A800E6FFD7EC0AF08E0E636E000E646E0A0E3E
:1003B8006326000E64224350632644506422030ED1
:1003C800E66E000EE66E09C0E6FF0AC0E6FFD7EC4F
:1003D8000AF043506324D96E44506420DA6EDF502B
:1003E800FD6E6C0EE66E000EE66E0BC0E6FF0CC0EE
:1003F800E6FFD7EC0AF08E0E636E000E646E0B0EED
:100408006326000E64224350632644506422030E80
:10041800E66E000EE66E09C0E6FF0AC0E6FFD7ECFE
:100428000AF043506324D96E44506420DA6EDF50DA
:10043800FE6E6C0EE66E000EE66E0BC0E6FF0CC09C
:10044800E6FFD7EC0AF08E0E636E000E646E090E9E
:100458006326000E64224350632644506422030E30
:10046800E66E000EE66E09C0E6FF0AC0E6FFD7ECAE
:100478000AF043506324D96E44506420DA6EDF508A
:10048800FF6E0906D8A00A0609500A10D8A480D71A
:10049800F28E72C04EF071C04DF070C04CF06FC05B
:1004A8004BF06EC044F06DC043F06CC0F4FF6BC0FD
:1004B800F3FF6AC0DAFF69C0D9FF68C0E2FF67C00E
:1004C800E1FF1100F29EACC20BF0ADC20CF00BC004
:1004D8004DF00CC04EF06C0E4D02F3CF4BF0F4CF44
:1004E8004CF04E02F3504C26960E4B24D96E000E5B
:1004F8004C20DA6EFF0EE3CFDFFF0BC04DF00CC0CF
:100508004EF06C0E4D02F3CF4BF0F4CF4CF04E0290
:10051800F3504C26930E4B24D96E000E4C20DA6E05
:10052800E8CFDFFF0BC04DF00CC04EF06C0E4D0253
:10053800F3CF4BF0F4CF4CF04E02F3504C26940E10
:100548004B24D96E000E4C20DA6ED8CFDFFF0BC0DB
:100558004DF00CC04EF06C0E4D02F3CF4BF0F4CFC3
:100568004CF04E02F3504C26950E4B24D96E000EDB
:100578004C20DA6EE0CFDFFF096A0A6A8DD009C025
:100588004DF00AC04EF0030E4D02F3CF4BF0F4CFFE
:100598004CF04E02F3504C260BC04DF00CC04EF000
:1005A8006C0E4D02F3CF49F0F4CF4AF04E02F350EF
:1005B8004A268E0E4D6E000E4E6E090E4D26000E0A
:1005C8004E2249504D264A504E224B504D24D96E4A
:1005D8004C504E20DA6EFFCFDFFF09C04DF00AC045
:1005E8004EF0030E4D02F3CF4BF0F4CF4CF04E0219
:1005F800F3504C260BC04DF00CC04EF06C0E4D0263
:10060800F3CF49F0F4CF4AF04E02F3504A268E0E4B
:100618004D6E000E4E6E0B0E4D26000E4E224950AA
:100628004D264A504E224B504D24D96E4C504E20E8
:10063800DA6EFECFDFFF09C04DF00AC04EF0030EA0
:100648004D02F3CF4BF0F4CF4CF04E02F3504C2652
:100658000BC04DF00CC04EF06C0E4D02F3CF49F0BC
:10066800F4CF4AF04E02F3504A268E0E4D6E000E1D
:100678004E6E0A0E4D26000E4E2249504D264A5007
:100688004E224B504D24D96E4C504E20DA6EFDCF81
:10069800DFFF094A0A2A0600FC50D8A470D7FF0ECB
:1006A8004D6EFF0E4E6E09C04BF00AC04CF04D5017
:1006B8004B264E504C220BC04DF00CC04EF06C0E29
:1006C8004D02F3CF49F0F4CF4AF04E02F3504A26D8
:1006D800F40E4924D96E000E4A20DA6E4BC0DEFFB4
:1006E8004CC0DDFF53EC0DF043C0ACF244C0ADF29A
:1006F800ACC20BF0ADC20CF0FC6A0BC04DF00CC0E4
:100708004EF06C0E4D02F3CF4BF0F4CF4CF04E028E
:10071800F3504C26F40E4B24D96E000E4C20DA6EA2
:10072800DE50DE10D8A41ED005000BC04DF00CC062
:100738004EF06C0E4D02F3CF4BF0F4CF4CF04E025E
:10074800F3504C26F60E4B24D96E000E4C20DA6E70
:10075800DECF4DF0DDCF4EF04DC0FDFF4EC0FEFFA9
:10076800FF6AFFD00BC04DF00CC04EF06C0E4D026E
:10077800F3CF4BF0F4CF4CF04E02F3504C26960ECC
:100788004B24D96E000E4C20DA6E010EDF6E0BC0C2
:100798004DF00CC04EF06C0E4D02F3CF4BF0F4CF81
:1007A8004CF04E02F3504C26930E4B24D96E000E9B
:1007B8004C20DA6EDF504E6E4E500BC04DF00CC020
:1007C8004EF06C0E4D02F3CF4BF0F4CF4CF04E02CE
:1007D800F3504C26940E4B24D96E000E4C20DA6E42
:1007E800DF50D86E0BC04DF00CC04EF06C0E4D02B1
:1007F800F3CF4BF0F4CF4CF04E02F3504C26950E4D
:100808004B24D96E000E4C20DA6EDF50E06E0BC020
:100818004DF00CC04EF06C0E4D02F3CF4BF0F4CF00
:100828004CF04E02F3504C26F40E4B24D96E000EB9
:100838004C20DA6EDECF09F0DDCF0AF08ED005004D
:1008480009C04DF00AC04EF0030E4D02F3CF4BF035
:10085800F4CF4CF04E02F3504C260BC04DF00CC0B8
:100868004EF06C0E4D02F3CF49F0F4CF4AF04E0231
:10087800F3504A268E0E4D6E000E4E6E0A0E4D2611
:10088800000E4E2249504D264A504E224B504D24C0
:10089800D96E4C504E20DA6EDF50FD6E09C04DF017
:1008A8000AC04EF0030E4D02F3CF4BF0F4CF4CF0DC
:1008B8004E02F3504C260BC04DF00CC04EF06C0E9F
:1008C8004D02F3CF49F0F4CF4AF04E02F3504A26D6
:1008D8008E0E4D6E000E4E6E0B0E4D26000E4E22E5
:1008E80049504D264A504E224B504D24D96E4C50FB
:1008F8004E20DA6EDF50FE6E09C04DF00AC04EF091
:10090800030E4D02F3CF4BF0F4CF4CF04E02F350F0
:100918004C260BC04DF00CC04EF06C0E4D02F3CFC0
:1009280049F0F4CF4AF04E02F3504A268E0E4D6E2F
:10093800000E4E6E090E4D26000E4E2249504D26D1
:100948004A504E224B504D24D96E4C504E20DA6EF0
:10095800DF50FF6E0906D8A00A0609500A10D8A46D
:100968006ED7F28EE5521200060EE126000EE22244
:10097800F90EE3CF43F07E0E436405D0000E436EBC
:10098800000E446EBBD0020E436EFB0E43C0E3FF65
:10099800AE0E436EFA0E43C0E3FFFA0EE3CFD9FF63
:1009A800FB0EE3CFDAFFDF504E6EFE0E4EC0E3FFC4
:1009B800E150FE0FD96EE250DA6EFF0EDA22DF50F8
:1009C8007F0B4E6EFF0E4E26FF0E4EC0E3FFFE0E4F
:1009D800E350D8B4D3D7E150FE0FD96EE250DA6EA7
:1009E800FF0EDA22DFBE16D0E150FF0FD96EE250BB
:1009F800DA6EFF0EDA22F90EE350DE5CD8B020D0B2
:100A0800FA0EE3CFE6FFE3CFE6FF87EC05F04350AD
:100A1800D8A4C3D7E150FE0FD96EE250DA6EFF0EAC
:100A2800DA22DF507F0B010DE150FA0FD96EE25048
:100A3800DA6EFF0EDA22F350DE26F450DD22ADD74F
:100A4800E150F90FD96EE250DA6EFF0EDA22FF0E8E
:100A5800E350DE18D8A411D0FA0EE3CFD9FFFB0E6D
:100A6800E3CFDAFFDF8EFA0EE350010F436EFB0E81
:100A7800E3CF44F0000E442241D0FA0EE3CFD9FF71
:100A8800FB0EE3CFDAFFF90EE350810FDF6EFA0EAB
:100A9800E350010F4D6EFB0EE3CF4EF0000E4E22D9
:100AA800FD0E4EC0E3FFFC0E4DC0E3FFF90EE35010
:100AB8004D6E4E6A010E4D26000E4E22E150FA0F81
:100AC800D96EE250DA6EFF0EDA224D50DE264E5015
:100AD800DD22FA0EE3CFD9FFFB0EE3CFDAFFF90EE2
:100AE800E3CF4EF0FF0EE3CF4DF04E504D5CDF6E7E
:100AF800FC0EE3CF43F0FD0EE3CF44F0F90EE12600
:100B0800FF0EE2221200050EE126000EE222F90E87
:100B1800E3CFD9FFFA0EE3CFDAFFDF504D6E4E6A0E
:100B2800F90EE3504D26FA0EE3504E22FC0E4EC04D
:100B3800E3FFFB0E4DC0E3FFF90EE3CFD9FFFA0E3A
:100B4800E3CFDAFFDF504E6EFE0E4EC0E3FFFB0E22
:100B5800E3CFD9FFFC0EE3CFDAFFDF504E6EFD0E78
:100B68004EC0E3FFFD0EE350D8A402D0000E6ED0B5
:100B7800E150FE0FD96EE250DA6EFF0EDA22DFBEC8
:100B8800F5D7E150FD0FD96EE250DA6EFF0EDA228A
:100B9800DFBEECD7E150FE0FD96EE250DA6EFF0EE1
:100BA800DA22DF507F0B7F0AD8B4E0D7FD0EE3CFFF
:100BB8004EF0FE0EE3504E244D6EFF0E4DC0E3FF87
:100BC800FF0EE3CF43F07F0E436436D0F90EE3CF38
:100BD800D9FFFA0EE3CFDAFF7F0EDF6EF90EE3508E
:100BE8007F0F436EF90E43C0E3FF436AFA0EE350EA
:100BF8004320436EFA0E43C0E3FFFD0EE350010DA0
:100C0800E150FB0FD96EE250DA6EFF0EDA22F35094
:100C1800DE26F450DD22F90EE3CFD9FFFA0EE3CF3A
:100C2800DAFFF90EE3CF4EF0FB0EE3CF4DF04E5056
:100C38004D5CDF6E7F0E0AD0F90EE3CFD9FFFA0EB6
:100C4800E3CFDAFFFF0EE3CFDFFFDF50436EF90E8D
:100C5800E126FF0EE2221200E652E652FE0EE36A99
:100C6800FF0EE36A70D0FE0EE3CF4DF0FF0EE3CF28
:100C78004EF06C0E4D02F3CF4BF0F4CF4CF04E0219
:100C8800F3504C26960E4B24D96E000E4C20DA6E8B
:100C9800020EDE18D8A448D0FE0EE3CF4DF0FF0EAA
:100CA800E3CF4EF06C0E4D02F3CF4BF0F4CF4CF087
:100CB8004E02F3504C26F80E4B24D96E000E4C20F1
:100CC800DA6EDE06000EDD5AFE0EE3CF4DF0FF0EA3
:100CD800E3CF4EF06C0E4D02F3CF4BF0F4CF4CF057
:100CE8004E02F3504C26F80E4B24D96E000E4C20C1
:100CF800DA6EDE50DE10D8A417D0FE0EE3CF4DF02A
:100D0800FF0EE3CF4EF06C0E4D02F3CF4BF0F4CF55
:100D18004CF04E02F3504C26960E4B24D96E000E22
:100D28004C20DA6E000EDF6EFE0EE350010F436EAC
:100D3800FE0E43C0E3FF436AFF0EE3504320436EB9
:100D4800FF0E43C0E3FF22EEAAF0FE0EE3CF43F00E
:100D5800DE50435CFF0EE3CF43F0DE504358D8A08B
:100D680082D7E552E5521200FE0EE3CF4DF0FF0E9A
:100D7800E3CF4EF0040E4D24D96E000E4E20DA6EED
:100D8800000EDE6E000EDD6EFE0EE3CF4DF0FF0EA0
:100D9800E3CF4EF0060E4D24D96E000E4E20DA6ECB
:100DA800000EDE6E000EDD6EE150FC0FD96EE250D3
:100DB800DA6EFF0EDA22FE0EE3CF4DF0FF0EE3CF20
:100DC8004EF0080E4D24E96E000E4E20EA6EDECF7E
:100DD800EEFFDDCFEDFFE150FA0FD96EE250DA6E8B
:100DE800FF0EDA22FE0EE3CF4DF0FF0EE3CF4EF0FA
:100DF8000A0E4D24E96E000E4E20EA6EDECFEEFF9D
:100E0800DDCFEDFF020EE66E000EE66EFC0EE3CFC0
:100E18004DF0FD0EE3CF4EF0080E4D24D96E000EB6
:100E28004E20DA6EDECF4DF0DDCF4EF04DC0E6FF3E
:100E38004EC0E6FFA9EC0BF0000EE66E000EE66E63
:100E4800FC0EE3CF4DF0FD0EE3CF4EF00A0E4D241D
:100E5800D96E000E4E20DA6EDECF4DF0DDCF4EF0AB
:100E68004DC0E6FF4EC0E6FFA9EC0BF0FA0EE126F6
:100E7800FF0EE2221200FE0EE3CF4DF0FF0EE3CF8D
:100E88004EF0080E4D24D96E000E4E20DA6EDECFDD
:100E98004DF0DDCF4EF04DC0E6FF4EC0E6FF3FEC13
:100EA80009F0E150FC0FD96EE250DA6EFF0EDA223B
:100EB800FE0EE3CF4DF0FF0EE3CF4EF0040E4D24AF
:100EC800E96E000E4E20EA6EEECF4DF0EDCF4EF0FB
:100ED800D8904D344B6E4E344C6EFE0EE3CF4DF031
:100EE800FF0EE3CF4EF04B504D24E96E4C504E2090
:100EF800EA6EDECFEEFFDDCFEDFFFE0EE3CF4DF065
:100F0800FF0EE3CF4EF0040E4D24D96E000E4E2096
:100F1800DA6EDECF4DF0DDCF4EF0010E4D26000E1D
:100F28004E22010E4D16000E4E16FE0EE3CF4BF06C
:100F3800FF0EE3CF4CF0040E4B24D96E000E4C206C
:100F4800DA6E4DC0DEFF4EC0DDFFFE0EE3CF4DF082
:100F5800FF0EE3CF4EF00A0E4D24D96E000E4E2040
:100F6800DA6EDECF4DF0DDCF4EF04DC0E6FF4EC05D
:100F7800E6FFC4EC08F0E552E552E552E5521200EE
:100F8800FE0EE3CF4DF0FF0EE3CF4EF00A0E4D24D8
:100F9800D96E000E4E20DA6EDECF4DF0DDCF4EF06A
:100FA8004DC0E6FF4EC0E6FF3FEC09F0FE0EE3CF72
:100FB8004DF0FF0EE3CF4EF0060E4D24D96E000E15
:100FC8004E20DA6EDECF4DF0DDCF4EF0D8904D34A6
:100FD8004B6E4E344C6EFE0EE3CF4DF0FF0EE3CF5A
:100FE8004EF04B504D24D96E4C504E20DA6EFC0E0C
:100FF800E3CFE9FFFD0EE3CFEAFFDECFEEFFDDCF63
:10100800EDFFFE0EE3CF4DF0FF0EE3CF4EF0060EE0
:101018004D24D96E000E4E20DA6EDECF4DF0DDCFB6
:101028004EF0010E4D26000E4E22010E4D16000EFA
:101038004E16FE0EE3CF4BF0FF0EE3CF4CF0060E3C
:101048004B24D96E000E4C20DA6E4DC0DEFF4EC028
:10105800DDFFFE0EE3CF4DF0FF0EE3CF4EF0080E9E
:101068004D24D96E000E4E20DA6EDECF4DF0DDCF66
:101078004EF04DC0E6FF4EC0E6FFC4EC08F0E55266
:10108800E552E552E55212006C0EE126000EE2220E
:1010980022EEAAF0DECF4DF0DDCF4EF0010E4D2648
:1010A800000E4E22940E4DC0E3FF950E4EC0E3FF96
:1010B800E150920FD96EE250DA6EFF0EDA22960EE8
:1010C800E124E96EFF0EE220EA6EDECFEEFFDDCF0F
:1010D800EDFF9C0EE124D96EFF0EE220DA6E000EC1
:1010E800DF6EE150900FD96EE250DA6EFF0EDA2211
:1010F800FC0EE124E96EFF0EE220EA6EDECFEEFF81
:10110800DDCFEDFFFA0EE124D96EFF0EE220DA6E94
:10111800000EDE6E000EDD6EFE0EE124D96EFF0EAF
:10112800E220DA6E000EDE6E000EDD6E940EE12413
:10113800D96EFF0EE220DA6E02EEAAF0EECF4DF085
:10114800EDCF4EF06C0E4D02F3CF4BF0F4CF4CF0D8
:101158004E02F3504C268E0E4B24E96E000E4C20A6
:10116800EA6E6B0EDBCFEBFFE806FCE222EEAAF09C
:10117800DE2A000EDD22900EE126FF0EE22212008A
:10118800F29EFE0EE3CFD9FFFF0EE3CFDAFFDE2A91
:10119800000EDD22FE0EE3CFD9FFFF0EE3CFDAFF0C
:1011A800010EDBBE64D0010EDB5003E1DE04D8A0E3
:1011B8005ED0FE0EE3CF4DF0FF0EE3CF4EF00C0EE7
:1011C8004D24D96E000E4E20DA6EDECF4DF0DDCF05
:1011D8004EF0D8904D344B6E4E344C6EFE0EE350AC
:1011E8004B26FF0EE3504C22020E4B24D96E000E04
:1011F8004C20DA6EDECF4DF0DDCF4EF06C0E4D0296
:10120800F3CF4BF0F4CF4CF04E02F3504C26960E31
:101218004B24D96E000E4C20DA6E000EDF6EFE0EE7
:10122800E3CF4DF0FF0EE3CF4EF00C0E4D24D96EF8
:10123800000E4E20DA6EDECF4DF0DDCF4EF0010EFF
:101248004D26000E4E22030E4D16000E4E16FE0EB3
:10125800E3CF4BF0FF0EE3CF4CF00C0E4B24D96ECE
:10126800000E4C20DA6E4DC0DEFF4EC0DDFFF28E60
:10127800E552E5521200F29EFE0EE3CFD9FFFF0EB3
:10128800E3CFDAFFDE06000EDD5AFE0EE3CFD9FF0C
:10129800FF0EE3CFDAFF010EDBAE5DD0FE0EE3CF2B
:1012A800D9FFFF0EE3CFDAFF000EDE6E000EDD6E13
:1012B80022EEACF0FE0EE3CF4DF0FF0EE3CF4EF082
:1012C8000A0E4D24E96E000E4E20EA6EEECF4DF068
:1012D800EDCF4EF0D8904D344B6E4E344C6EFE0E22
:1012E800E3504B26FF0EE3504C22020E4B24E96ECE
:1012F800000E4C20EA6EDECFEEFFDDCFEDFFFE0ED6
:10130800E3CF4DF0FF0EE3CF4EF00A0E4D24D96E19
:10131800000E4E20DA6EDECF4DF0DDCF4EF0010E1E
:101328004D26000E4E22030E4D16000E4E16FE0ED2
:10133800E3CF4BF0FF0EE3CF4CF00A0E4B24D96EEF
:10134800000E4C20DA6E4DC0DEFF4EC0DDFF050EEC
:10135800E66E66EC02F0F28EE552E5521200E652B5
:10136800E652E652E652020E436EFF0E43C0E3FF1A
:10137800AE0E436EFE0E43C0E3FFFF0E4D6E010E30
:101388004E6EFC0E4DC0E3FFFD0E4EC0E3FFFD0E9A
:10139800E35007E1FC0EE3CF43F0800E435ED8A094
:1013A80023D0FE0EE3CFD9FFFF0EE3CFDAFF7F0E87
:1013B800DF6EFE0EE3507F0F436EFE0E43C0E3FF69
:1013C800436AFF0EE3504320436EFF0E43C0E3FF22
:1013D800E150FC0FD96EE250DA6EFF0EDA22810E70
:1013E800DE26FF0EDD22D3D7FE0EE3CFD9FFFF0E98
:1013F800E3CFDAFFFC0EE3CFDFFFFC0EE3CF4DF0C7
:10140800FD0EE3CF4EF0FE0EE3CF4BF0FF0EE3CF21
:101418004CF04D504B24D96E4E504C20DA6E000ED5
:10142800DF6EE552E552E552E5521200E652E65209
:101438001B0EE66E000EE66E3FEC09F0FE0EE36A48
:10144800FF0EE36AFE0EE3CF4DF0FF0EE3CF4EF042
:101458004D500724D96E4E500820DA6EDFB00ED0FA
:1014680081A602D0010E01D0000EFF0A4E6E4E4634
:101478004E464E4681504E18F70B0CD081AA02D02A
:10148800010E01D0000EFF0A4E6E4E3A4E468150B4
:101498004E18DF0B4E18816EE80EE66E030EE66EF0
:1014A80072EC0CF0FE0EE350010F436EFE0E43C0CB
:1014B800E3FF436AFF0EE3504320436EFF0E43C031
:1014C800E3FFFF0EE3BEBED7FF0EE35007E1FE0EBB
:1014D800E3CF43F0040E435ED8A0B4D7290EE66EDE
:1014E800000EE66EC4EC08F0A3D7E652FB0EE3CF7D
:1014F80043F0FC0EE3504310D8B44AD0FF0EE36A21
:1015080010D0FB0EE350D890E834436EFB0E43C076
:10151800E3FFFC0EE350E834436EFC0E43C0E3FFE8
:10152800FF0EE32AFC0EE3AEECD7FB0EE3CF4DF043
:10153800FC0EE3CF4EF0FD0EE3CF4BF0FE0EE3CFF3
:101548004CF04D504B5C4E504C58D8A012D0FD0E6C
:10155800E350436EFB0EE350435EFD0E43C0E3FFD2
:10156800FE0EE350436EFC0EE350435AFE0E43C09A
:10157800E3FFD890FC0EE332FB0EE332FF0EE3509C
:10158800436E010E435EFF0E43C0E3FFD8A4CDD7E0
:10159800FD0EE3CF43F0FE0EE3CF44F0FB0EE12651
:1015A800FF0EE2221200E652E652FA0EE3CF4EF0A8
:1015B800FC0EE3504E02FE0EF3CFE3FFFF0EF4CF16
:1015C800E3FFFB0EE124D96EFF0EE220DA6EDF5056
:1015D8004E6EFC0EE3504E02F3CFF4FFF36AE15077
:1015E800FE0FD96EE250DA6EFF0EDA22F350DE26D5
:1015F800F450DD22FA0EE3CF4EF0FD0EE124D96E51
:10160800FF0EE220DA6EDF504E02F3CFF4FFF36AEA
:10161800E150FE0FD96EE250DA6EFF0EDA22F35077
:10162800DE26F450DD22FE0EE3CF43F0FF0EE3CFBB
:1016380044F0FA0EE126FF0EE2221200E652E652CC
:10164800FE0EACC2E3FFFF0EADC2E3FF22EEAAF02E
:10165800DECF4DF0DDCF4EF04DC0E6FF4EC0E6FFC9
:10166800FC0EE350010F4D6EFD0EE3CF4EF0000E61
:101678004E224DC0E6FF4EC0E6FF79EC0AF0FE0EA2
:1016880043C0E3FFFF0E44C0E3FFFE0EE3CF4DF07F
:10169800FF0EE3CF4EF06C0E4D02F3CF4BF0F4CFBC
:1016A8004CF04E02F3504C26960E4B24D96E000E89
:1016B8004C20DA6EDF50D8A4C9D7FE0EE3CF43F032
:1016C800FF0EE3CF44F0E552E5521200E652E6522F
:1016D800290EE66E000EE66E3FEC09F0FE0EE36A98
:1016E800FF0EE36AFE0EE3CF4DF0FF0EE3CF4EF0A0
:1016F8004D500724D96E4E500820DA6EFE0EE35086
:10170800010FDF6EFE0EE350010F436EFE0E43C065
:10171800E3FF436AFF0EE3504320436EFF0E43C0CE
:10172800E3FFFF0EE3BEDED7FF0EE35007E1FE0E38
:10173800E3CF43F0040E435ED8A0D4D71B0EE66E69
:10174800000EE66EC4EC08F0C3D7F29EE150FC0F21
:10175800D96EE250DA6EFF0EDA22FE0EE3CFE9FF11
:10176800FF0EE3CFEAFFDECFEEFFDDCFEDFFFE0E8B
:10177800E3CF4DF0FF0EE3CF4EF00A0E4D24D96EA5
:10178800000E4E20DA6E000EDE6E000EDD6EFE0ECE
:10179800E3CF4DF0FF0EE3CF4EF00C0E4D24D96E83
:1017A800000E4E20DA6E000EDE6E000EDD6EF28E3A
:1017B800E552E552E552E5521200010E936E7F0E96
:1017C800946EFE0E956E828E010EE66E000EE66E2B
:1017D800290EE66E000EE66EA9EC0BF0000EE66E22
:1017E800000EE66E1B0EE66E000EE66EA9EC0BF020
:1017F800800EE66E000EE66E0D0EE66E000EE66ECC
:10180800370EE66E000EE66EB8EC06F0050EE66ED4
:10181800B8EC04F043C007F044C008F0016A026A5B
:10182800066A1200E65223D081BC21D0F40EE66E7F
:10183800010EE66E72EC0CF001C04DF002C04EF0E5
:10184800030E4D24D96E000E4E20DA6EFF0EE3CF44
:10185800DFFF01C04DF002C04EF0030E4D24D96EDB
:10186800000E4E20DA6E000EDF6E014A022A02BE1A
:10187800DBD7025004E1030E015CD8A0D5D7010ED6
:10188800066EE552120006EC0DF0E1EC0BF04BECA5
:101898000DF042EC0DF0CC0EE66E190EE66E030E5E
:1018A800E66E000EE66E48EC08F0360EE66E190E8F
:1018B800E66E040EE66E000EE66E48EC08F02C0E9E
:1018C800E66E180EE66E050EE66E000EE66E48EC45
:1018D80008F0000EE66E66EC02F0FFD7F29EE150CB
:1018E800FE0FD96EE250DA6EFF0EDA2202EEACF08D
:1018F800EECF4DF0EDCF4EF06C0E4D02F3CF4BF026
:10190800F4CF4CF04E02F3504C26F80E4B24E96EFF
:10191800000E4C20EA6EDECFEEFFDDCFEDFF020EAB
:10192800E66E66EC02F0F28EE552E5521200E652DF
:10193800E652FE0EE124436EFF0EE220446E43C0E1
:10194800E6FF44C0E6FF370EE66E000EE66EC4EC16
:1019580007F081A802D0010E01D0000EFF0A4E6EDA
:101968004E3A81504E18EF0B4E18816ED00EE66E2F
:10197800070EE66E72EC0CF0DCD7B00EF66E1A0E9F
:10198800F76E000EF86E0900F5CF73F00900F5CF79
:1019980074F000EE8EF024EE20F0EE6ADD50D9509F
:1019A800FCE1DA50FAE100EE80F00E0EEE6AE8068D
:1019B800FDE100EE01F0420EEE6AE806FDE10001ED
:1019C80047EF0CF0010EE66E000EE66E370EE66E7F
:1019D800000EE66E3FEC07F081A602D0010E01D0A2
:1019E800000EFF0A4E6E4E464E464E4681504E1829
:1019F800F70B4E18816EE80EE66E030EE66E72EC7B
:101A08000CF0E0D7B3EC09F0000EE8CFACF2000E12
:101A1800E8CFADF2000EE8CFAAF2000EE8CFABF2A5
:101A2800AC0EE66E1A0EE66E000EE66E000EE66E60
:101A380048EC08F0120081AA02D0010E01D0000E75
:101A4800FF0A4E6E4E3A4E4681504E18DF0B4E1826
:101A5800816EE80EE66E030EE66E72EC0CF0EBD7C4
:101A680006D0640EE66E000EE66E72EC0CF082B0E4
:101A7800120082B2120082B41200F3D7D59AD5961A
:101A8800070ED512F28CF28AFC0ED66E12009590D3
:101A9800F28EF288F288F292F19EF19C120022EC0A
:0A1AA8000BF0120000F0FED70A0058
:020000040020DA
:08000000FFFFFFFFFFFFFFFF00
:020000040030CA
:0E000000FF071F1EFF8185FF0FC00FE00F409E
:00000001FF
