:020000040000FA
:0400000006EF00F017
:100008000AED00F015EE58F042EF0CF00600E1CFD3
:100018006BF0E2CF6CF0D9CF6DF0DACF6EF0F3CFA2
:100028006FF0F4CF70F049C071F04AC072F051C05F
:1000380073F052C074F053C075F054C076F015EEEA
:1000480090F0F29EF2A42CD2F294FC0ED66E83A00D
:1000580002D0010E01D0000EFF0A696E83506918A4
:10006800FE0B6918836ECBEC04F07706D8A07806EF
:1000780078BE05D0785002E17704D8B011D2000ECE
:10008800786E0A0E776E56C30BF057C30CF06E0EDF
:10009800E66E000EE66E0BC0E6FF0CC0E6FF64ECF1
:1000A8000AF0C80E4924D96E000E4A20DA6E000EF6
:1000B800DF6E6E0EE66E000EE66E0BC0E6FF0CC03D
:1000C800E6FF64EC0AF0C50E4924D96E000E4A20FA
:1000D800DA6EE8CFDFFF6E0EE66E000EE66E0BC03E
:1000E800E6FF0CC0E6FF64EC0AF0C60E4924D96EA0
:1000F800000E4A20DA6ED8CFDFFF6E0EE66E000ED5
:10010800E66E0BC0E6FF0CC0E6FF64EC0AF0C70E13
:100118004924D96E000E4A20DA6EE0CFDFFF096A63
:100128000A6A7BD06E0EE66E000EE66E0BC0E6FF26
:100138000CC0E6FF64EC0AF0C00E696E000E6A6E31
:10014800090E6926000E6A22495069264A506A2219
:10015800030EE66E000EE66E09C0E6FF0AC0E6FF73
:1001680064EC0AF049506924D96E4A506A20DA6E64
:10017800FFCFDFFF6E0EE66E000EE66E0BC0E6FFE9
:100188000CC0E6FF64EC0AF0C00E696E000E6A6EE1
:100198000B0E6926000E6A22495069264A506A22C7
:1001A800030EE66E000EE66E09C0E6FF0AC0E6FF23
:1001B80064EC0AF049506924D96E4A506A20DA6E14
:1001C800FECFDFFF6E0EE66E000EE66E0BC0E6FF9A
:1001D8000CC0E6FF64EC0AF0C00E696E000E6A6E91
:1001E8000A0E6926000E6A22495069264A506A2278
:1001F800030EE66E000EE66E09C0E6FF0AC0E6FFD3
:1002080064EC0AF049506924D96E4A506A20DA6EC3
:10021800FDCFDFFF094A0A2A0600FC50D8A482D77E
:100228006E0EE66E000EE66E0BC0E6FF0CC0E6FF33
:1002380064EC0AF0260E4924D96E010E4A20DA6EC3
:1002480009C0DEFF0AC0DDFFAFEC0AF049C056F373
:100258004AC057F3FC6A56C30BF057C30CF06E0E36
:10026800E66E000EE66E0BC0E6FF0CC0E6FF64EC1F
:100278000AF0280E4924D96E010E4A20DA6EDE50A3
:10028800DE10D8A42FD06E0EE66E000EE66E0BC000
:10029800E6FF0CC0E6FF64EC0AF0280E4924D96E8C
:1002A800010E4A20DA6E010EDE6E000EDD6E0500CC
:1002B8006E0EE66E000EE66E0BC0E6FF0CC0E6FFA3
:1002C80064EC0AF02A0E4924D96E010E4A20DA6E2F
:1002D800DECF69F0DDCF6AF069C0FDFF6AC0FEFFBE
:1002E800FF6ADED06E0EE66E000EE66E0BC0E6FF0D
:1002F8000CC0E6FF64EC0AF0C80E4924D96E000E63
:100308004A20DA6E010EDF6E6E0EE66E000EE66EA5
:100318000BC0E6FF0CC0E6FF64EC0AF0C50E4924EA
:10032800D96E000E4A20DA6EDF50696E69506E0E83
:10033800E66E000EE66E0BC0E6FF0CC0E6FF64EC4E
:100348000AF0C60E4924D96E000E4A20DA6EDF5034
:10035800D86E6E0EE66E000EE66E0BC0E6FF0CC0A1
:10036800E6FF64EC0AF0C70E4924D96E000E4A2055
:10037800DA6EDF50E06E6E0EE66E000EE66E0BC0B3
:10038800E6FF0CC0E6FF64EC0AF0260E4924D96E9D
:10039800010E4A20DA6EDECF09F0DDCF0AF07CD0FC
:1003A80005006E0EE66E000EE66E0BC0E6FF0CC092
:1003B800E6FF64EC0AF0C00E696E000E6A6E070E66
:1003C8006926000E6A22495069264A506A22030E9D
:1003D800E66E000EE66E09C0E6FF0AC0E6FF64ECB2
:1003E8000AF049506924D96E4A506A20DA6EDF5003
:1003F800FD6E6E0EE66E000EE66E0BC0E6FF0CC0DC
:10040800E6FF64EC0AF0C00E696E000E6A6E080E14
:100418006926000E6A22495069264A506A22030E4C
:10042800E66E000EE66E09C0E6FF0AC0E6FF64EC61
:100438000AF049506924D96E4A506A20DA6EDF50B2
:10044800FE6E6E0EE66E000EE66E0BC0E6FF0CC08A
:10045800E6FF64EC0AF0C00E696E000E6A6E060EC6
:100468006926000E6A22495069264A506A22030EFC
:10047800E66E000EE66E09C0E6FF0AC0E6FF64EC11
:100488000AF049506924D96E4A506A20DA6EDF5062
:10049800FF6E0906D8A00A0609500A10D8A480D70A
:1004A800F28E76C054F075C053F074C052F073C029
:1004B80051F072C04AF071C049F070C0F4FF6FC0CB
:1004C800F3FF6EC0DAFF6DC0D9FF6CC0E2FF6BC0EE
:1004D800E1FF1100F29E56C30BF057C30CF00BC09E
:1004E80053F00CC054F06E0E5302F3CF51F0F4CF1A
:1004F80052F05402F3505226C80E5124D96E000E01
:100508005220DA6EFF0EE3CFDFFF0BC053F00CC0B2
:1005180054F06E0E5302F3CF51F0F4CF52F0540260
:10052800F3505226C50E5124D96E000E5220DA6EB1
:10053800E8CFDFFF0BC053F00CC054F06E0E53022F
:10054800F3CF51F0F4CF52F05402F3505226C60EB6
:100558005124D96E000E5220DA6ED8CFDFFF0BC0BF
:1005680053F00CC054F06E0E5302F3CF51F0F4CF99
:1005780052F05402F3505226C70E5124D96E000E81
:100588005220DA6EE0CFDFFF096A0A6A8DD009C00F
:1005980053F00AC054F0030E5302F3CF51F0F4CFD6
:1005A80052F05402F35052260BC053F00CC054F0D2
:1005B8006E0E5302F3CF4FF0F4CF50F05402F350C5
:1005C8005026C00E536E000E546E090E5326000EB0
:1005D80054224F5053265050542251505324D96E10
:1005E80052505420DA6EFFCFDFFF09C053F00AC023
:1005F80054F0030E5302F3CF51F0F4CF52F05402EB
:10060800F35052260BC053F00CC054F06E0E530238
:10061800F3CF4FF0F4CF50F05402F3505026C00EF1
:10062800536E000E546E0B0E5326000E54224F507C
:1006380053265050542251505324D96E52505420AE
:10064800DA6EFECFDFFF09C053F00AC054F0030E84
:100658005302F3CF51F0F4CF52F05402F350522624
:100668000BC053F00CC054F06E0E5302F3CF4FF092
:10067800F4CF50F05402F3505026C00E536E000EC3
:10068800546E0A0E5326000E54224F5053265050D3
:10069800542251505324D96E52505420DA6EFDCF53
:1006A800DFFF094A0A2A0600FC50D8A470D70BC0FD
:1006B80053F00CC054F06E0E5302F3CF51F0F4CF48
:1006C80052F05402F3505226260E5124D96E010ED0
:1006D8005220DA6E09C0DEFF0AC0DDFF91EC0CF093
:1006E80049C056F34AC057F3FC6A56C30BF057C3C8
:1006F8000CF00BC053F00CC054F06E0E5302F3CF45
:1007080051F0F4CF52F05402F3505226280E5124DF
:10071800D96E010E5220DA6EDE50DE10D8A435D024
:100728000BC053F00CC054F06E0E5302F3CF51F0CF
:10073800F4CF52F05402F3505226280E5124D96EA9
:10074800010E5220DA6E010EDE6E000EDD6E05001F
:100758000BC053F00CC054F06E0E5302F3CF51F09F
:10076800F4CF52F05402F35052262A0E5124D96E77
:10077800010E5220DA6EDECF53F0DDCF54F053C0B5
:10078800FDFF54C0FEFFFF6AFFD00BC053F00CC042
:1007980054F06E0E5302F3CF51F0F4CF52F05402DE
:1007A800F3505226C80E5124D96E000E5220DA6E2C
:1007B800010EDF6E0BC053F00CC054F06E0E5302E6
:1007C800F3CF51F0F4CF52F05402F3505226C50E35
:1007D8005124D96E000E5220DA6EDF50546E5450F8
:1007E8000BC053F00CC054F06E0E5302F3CF51F00F
:1007F800F4CF52F05402F3505226C60E5124D96E4B
:10080800000E5220DA6EDF50D86E0BC053F00CC0C9
:1008180054F06E0E5302F3CF51F0F4CF52F054025D
:10082800F3505226C70E5124D96E000E5220DA6EAC
:10083800DF50E06E0BC053F00CC054F06E0E530244
:10084800F3CF51F0F4CF52F05402F3505226260E53
:100858005124D96E010E5220DA6EDECF09F0DDCFB9
:100868000AF08ED0050009C053F00AC054F0030EF8
:100878005302F3CF51F0F4CF52F05402F350522602
:100888000BC053F00CC054F06E0E5302F3CF4FF070
:10089800F4CF50F05402F3505026C00E536E000EA1
:1008A800546E070E5326000E54224F5053265050B4
:1008B800542251505324D96E52505420DA6EDF50CE
:1008C800FD6E09C053F00AC054F0030E5302F3CF73
:1008D80051F0F4CF52F05402F35052260BC053F0AB
:1008E8000CC054F06E0E5302F3CF4FF0F4CF50F01B
:1008F8005402F3505026C00E536E000E546E080E6C
:100908005326000E54224F50532650505422515013
:100918005324D96E52505420DA6EDF50FE6E09C04F
:1009280053F00AC054F0030E5302F3CF51F0F4CF42
:1009380052F05402F35052260BC053F00CC054F03E
:100948006E0E5302F3CF4FF0F4CF50F05402F35031
:100958005026C00E536E000E546E060E5326000E1F
:1009680054224F5053265050542251505324D96E7C
:1009780052505420DA6EDF50FF6E0906D8A00A06DE
:1009880009500A10D8A46ED7F28EE5521200E6522A
:10099800E652FE0EE36AFF0EE36A70D0FE0EE3CF66
:1009A80053F0FF0EE3CF54F06E0E5302F3CF51F025
:1009B800F4CF52F05402F3505226C80E5124D96E87
:1009C800000E5220DA6E020EDE18D8A448D0FE0EB1
:1009D800E3CF53F0FF0EE3CF54F06E0E5302F3CF84
:1009E80051F0F4CF52F05402F35052262C0E5124F9
:1009F800D96E010E5220DA6EDE06000EDD5AFE0EAA
:100A0800E3CF53F0FF0EE3CF54F06E0E5302F3CF53
:100A180051F0F4CF52F05402F35052262C0E5124C8
:100A2800D96E010E5220DA6EDE50DE10D8A417D02F
:100A3800FE0EE3CF53F0FF0EE3CF54F06E0E5302D9
:100A4800F3CF51F0F4CF52F05402F3505226C80EAF
:100A58005124D96E000E5220DA6E000EDF6EFE0EA3
:100A6800E350010F496EFE0E49C0E3FF496AFF0ECD
:100A7800E3504920496EFF0E49C0E3FF23EE54F0CE
:100A8800FE0EE3CF49F0DE50495CFF0EE3CF49F09C
:100A9800DE504958D8A082D7E552E5521200FE0E22
:100AA800E3CF53F0FF0EE3CF54F0040E5324D96E76
:100AB800000E5420DA6E000EDE6E000EDD6EFE0EA5
:100AC800E3CF53F0FF0EE3CF54F0060E5324D96E54
:100AD800000E5420DA6E000EDE6E000EDD6EE15060
:100AE800FC0FD96EE250DA6EFF0EDA22FE0EE3CF6B
:100AF80053F0FF0EE3CF54F0080E5324E96E000EB6
:100B08005420EA6EDECFEEFFDDCFEDFFE150FA0FA5
:100B1800D96EE250DA6EFF0EDA22FE0EE3CF53F002
:100B2800FF0EE3CF54F00A0E5324E96E000E542052
:100B3800EA6EDECFEEFFDDCFEDFF020EE66E000EB1
:100B4800E66EFC0EE3CF53F0FD0EE3CF54F0080E33
:100B58005324D96E000E5420DA6EDECF53F0DDCF69
:100B680054F053C0E6FF54C0E6FFB9EC0BF0000E9A
:100B7800E66E000EE66EFC0EE3CF53F0FD0EE3CFFB
:100B880054F00A0E5324D96E000E5420DA6EDECFCC
:100B980053F0DDCF54F053C0E6FF54C0E6FFB9EC84
:100BA8000BF0FA0EE126FF0EE22212006E0EE1268D
:100BB800000EE22223EE54F0DECF53F0DDCF54F0E6
:100BC800010E5326000E5422920E53C0E3FF930EDB
:100BD80054C0E3FFE150900FD96EE250DA6EFF0E79
:100BE800DA22940EE124E96EFF0EE220EA6EDECFEF
:100BF800EEFFDDCFEDFF9A0EE124D96EFF0EE22065
:100C0800DA6E000EDF6EE1508E0FD96EE250DA6EAA
:100C1800FF0EDA22FC0EE124E96EFF0EE220EA6EF6
:100C2800DECFEEFFDDCFEDFFF80EE124D96EFF0E2B
:100C3800E220DA6E000EDE6E000EDD6EFE0EE1249E
:100C4800D96EFF0EE220DA6E000EDE6E000EDD6E4B
:100C5800FA0EE124D96EFF0EE220DA6E000EDE6E87
:100C6800000EDD6E920EE124D96EFF0EE220DA6EE0
:100C780003EE54F0EECF53F0EDCF54F06E0E530266
:100C8800F3CF51F0F4CF52F05402F3505226C00E75
:100C98005124E96E000E5220EA6E6D0EDBCFEBFF99
:100CA800E806FCE223EE54F0DE2A000EDD228E0E6A
:100CB800E126FF0EE2221200FE0EE3CF53F0FF0EF4
:100CC800E3CF54F0080E5324D96E000E5420DA6E88
:100CD800DECF53F0DDCF54F053C0E6FF54C0E6FF3B
:100CE80067EC08F0E150FC0FD96EE250DA6EFF0EA7
:100CF800DA22FE0EE3CF53F0FF0EE3CF54F0040EDA
:100D08005324E96E000E5420EA6EEECF53F0EDCF77
:100D180054F0D8905334516E5434526EFE0EE3CFD3
:100D280053F0FF0EE3CF54F051505324E96E525064
:100D38005420EA6EDECFEEFFDDCFEDFFFE0EE3CFEF
:100D480053F0FF0EE3CF54F0040E5324D96E000E77
:100D58005420DA6EDECF53F0DDCF54F0010E532667
:100D6800000E5422010E5316000E5416FE0EE3CF49
:100D780051F0FF0EE3CF52F0040E5124D96E000E4D
:100D88005220DA6E53C0DEFF54C0DDFFFE0EE3CF03
:100D980053F0FF0EE3CF54F00A0E5324D96E000E21
:100DA8005420DA6EDECF53F0DDCF54F053C0E6FFA7
:100DB80054C0E6FF69EC07F0E552E552E552E5520A
:100DC8001200FE0EE3CF53F0FF0EE3CF54F00A0EED
:100DD8005324D96E000E5420DA6EDECF53F0DDCFE7
:100DE80054F053C0E6FF54C0E6FF67EC08F0FE0E6F
:100DF800E3CF53F0FF0EE3CF54F0060E5324D96E21
:100E0800000E5420DA6EDECF53F0DDCF54F0D890C8
:100E18005334516E5434526EFE0EE3CF53F0FF0E2E
:100E2800E3CF54F051505324D96E52505420DA6E07
:100E3800FC0EE3CFE9FFFD0EE3CFEAFFDECFEEFFC6
:100E4800DDCFEDFFFE0EE3CF53F0FF0EE3CF54F0FE
:100E5800060E5324D96E000E5420DA6EDECF53F0FE
:100E6800DDCF54F0010E5326000E5422010E531606
:100E7800000E5416FE0EE3CF51F0FF0EE3CF52F0F2
:100E8800060E5124D96E000E5220DA6E53C0DEFFD2
:100E980054C0DDFFFE0EE3CF53F0FF0EE3CF54F056
:100EA800080E5324D96E000E5420DA6EDECF53F0AC
:100EB800DDCF54F053C0E6FF54C0E6FF69EC07F0FD
:100EC800E552E552E552E5521200F29EFE0EE3CFDE
:100ED800D9FFFF0EE3CFDAFFDE2A000EDD22FE0E79
:100EE800E3CFD9FFFF0EE3CFDAFF010EDBBE06D05A
:100EF800010EDB5067E1DE04D8B064D0FE0EE3CF0C
:100F080053F0FF0EE3CF54F00E0E5324D96E000EAB
:100F18005420DA6EDECF53F0DDCF54F0D89053343E
:100F2800516E5434526EFE0EE3505126FF0EE350BC
:100F38005222020E5124D96E000E5220DA6EDECFF4
:100F480053F0DDCF54F06E0E5302F3CF51F0F4CFCF
:100F580052F05402F3505226C80E5124D96E000E96
:100F68005220DA6E000EDF6E050EE66E000EE66E9B
:100F7800FC0EE3CF53F0FD0EE3CF54F00E0E5324D6
:100F8800D96E000E5420DA6EDECF53F0DDCF54F068
:100F9800010E5326000E542253C0E6FF54C0E6FF4C
:100FA80006EC0AF0FE0EE3CF53F0FF0EE3CF54F049
:100FB8000E0E5324D96E000E5420DA6E49C0DEFF9F
:100FC8004AC0DDFFF28EE552E5521200E652E652C3
:100FD800B00EE66E000EE66E67EC08F0839E829E09
:100FE800F40EE66E010EE66EF1EC0BF082B682A806
:100FF80002D082BAFBD7C80EE66E000EE66EF1ECA0
:101008000BF00304D8A402D0020E03D082A602D0AB
:10101800030E036E0404D8A402D0020E03D082A8E3
:1010280002D0030E046E0504D8A402D0020E03D029
:1010380082AA02D0030E056E076A086AFE0EE36AEA
:10104800FF0EE36AFE0EE3CF53F0FF0EE3CF54F03A
:10105800030E5324D96E000E5420DA6E020EDE18E9
:10106800D8A402D0074A082AFE0EE350010F496EA1
:10107800FE0E49C0E3FF496AFF0EE3504920496E5E
:10108800FF0E49C0E3FFFF0EE3BEDCD7FF0EE350BF
:1010980007E1FE0EE3CF49F0030E495ED8A0D2D790
:1010A80007C0E6FF08C0E6FF3D0EE66E000EE66EDE
:1010B80060EC06F0A00EE66E000EE66E69EC07F036
:1010C800828E838E85D7F29EFE0EE3CFD9FFFF0E68
:1010D800E3CFDAFFDE06000EDD5AFE0EE3CFD9FFBE
:1010E800FF0EE3CFDAFF010EDBAE59D023EE56F048
:1010F800FE0EE3CF53F0FF0EE3CF54F00C0E532453
:10110800E96E000E5420EA6EEECF53F0EDCF54F0A6
:10111800D8905334516E5434526EFE0EE35051261B
:10112800FF0EE3505222020E5124E96E000E5220A7
:10113800EA6EDECFEEFFDDCFEDFF050EE66E000EA8
:10114800E66EFC0EE3CF53F0FD0EE3CF54F00C0E29
:101158005324D96E000E5420DA6EDECF53F0DDCF63
:1011680054F0010E5326000E542253C0E6FF54C01B
:10117800E6FF06EC0AF0FE0EE3CF53F0FF0EE3CFD6
:1011880054F00C0E5324D96E000E5420DA6E49C068
:10119800DEFF4AC0DDFF050EE66E6EEC02F0F28E51
:1011A800E552E5521200E652E652E652E652030EC6
:1011B800496EFF0E49C0E3FF580E496EFE0E49C046
:1011C800E3FFFF0E536E010E546EFC0E53C0E3FF97
:1011D800FD0E54C0E3FFFD0EE35007E1FC0EE3CF24
:1011E80049F0800E495ED8A023D0FE0EE3CFD9FF88
:1011F800FF0EE3CFDAFF7F0EDF6EFE0EE3507F0FA8
:10120800496EFE0E49C0E3FF496AFF0EE3504920CC
:10121800496EFF0E49C0E3FFE150FC0FD96EE25062
:10122800DA6EFF0EDA22810EDE26FF0EDD22D3D71C
:10123800FE0EE3CFD9FFFF0EE3CFDAFFFC0EE3CFBC
:10124800DFFFFC0EE3CF53F0FD0EE3CF54F0FE0EAC
:10125800E3CF51F0FF0EE3CF52F053505124D96E33
:1012680054505220DA6E000EDF6EE552E552E55218
:10127800E5521200050E936E7F0E946E0E0E956E5B
:101288008182828E8388838A838C838E010EE66EA8
:10129800000EE66E900EE66E000EE66EB9EC0BF0F0
:1012A800000EE66E000EE66E800EE66E000EE66E2E
:1012B800B9EC0BF0010EE66E000EE66E2D0EE66E32
:1012C800000EE66EB9EC0BF0000EE66E000EE66E50
:1012D8001D0EE66E000EE66EB9EC0BF0000EE66E23
:1012E800000EE66E0D0EE66E000EE66EB9EC0BF023
:1012F800000EE66E000EE66EB00EE66E000EE66EAE
:10130800B9EC0BF0000EE66E000EE66EA00EE66E6F
:10131800000EE66EB9EC0BF0800EE66E000EE66E7F
:10132800900EE66E000EE66E3D0EE66E000EE66E60
:1013380053EC05F0016A026A066A1200E652E652A8
:10134800E652E652FE0EE36AFF0EE36AA00EE66E70
:10135800000EE66E67EC08F08192829EFC0EE12496
:10136800496EFF0EE2204A6E49C0E6FF4AC0E6FF1A
:101378003D0EE66E000EE66EE5EC06F017D081B481
:10138800FED7C80EE66E000EE66EF1EC0BF0FE0E10
:10139800E350010F496EFE0E49C0E3FF496AFF0E94
:1013A800E3504920496EFF0E49C0E3FFFC0EE3CF2E
:1013B80053F0FD0EE3CF54F0FE0EE3CF51F0FF0ED5
:1013C800E3CF52F05350515C54505258D8A0D7D75D
:1013D8008182C80EE66E000EE66EF1EC0BF0828E8E
:1013E8008192C80EE66E000EE66EF1EC0BF02D0E43
:1013F800E66E000EE66E69EC07F0066A016A026A9C
:101408008182A0D7E652FB0EE3CF49F0FC0EE350F1
:101418004910D8B44AD0FF0EE36A10D0FB0EE3504F
:10142800D890E834496EFB0E49C0E3FFFC0EE35048
:10143800E834496EFC0E49C0E3FFFF0EE32AFC0EB8
:10144800E3AEECD7FB0EE3CF53F0FC0EE3CF54F042
:10145800FD0EE3CF51F0FE0EE3CF52F05350515C36
:1014680054505258D8A012D0FD0EE350496EFB0ECE
:10147800E350495EFD0E49C0E3FFFE0EE350496E9E
:10148800FC0EE350495AFE0E49C0E3FFD890FC0E0B
:10149800E332FB0EE332FF0EE350496E010E495E64
:1014A800FF0E49C0E3FFD8A4CDD7FD0EE3CF49F026
:1014B800FE0EE3CF4AF0FB0EE126FF0EE2221200F9
:1014C800E652E652FA0EE3CF54F0FC0EE350540213
:1014D800FE0EF3CFE3FFFF0EF4CFE3FFFB0EE12494
:1014E800D96EFF0EE220DA6EDF50546EFC0EE35028
:1014F8005402F3CFF4FFF36AE150FE0FD96EE250C5
:10150800DA6EFF0EDA22F350DE26F450DD22FA0EF0
:10151800E3CF54F0FD0EE124D96EFF0EE220DA6E1F
:10152800DF505402F3CFF4FFF36AE150FE0FD96E97
:10153800E250DA6EFF0EDA22F350DE26F450DD2296
:10154800FE0EE3CF49F0FF0EE3CF4AF0FA0EE12694
:10155800FF0EE2221200E652E652FE0E56C3E3FFE9
:10156800FF0E57C3E3FF23EE54F0DECF53F0DDCF79
:1015780054F053C0E6FF54C0E6FFFC0EE350010FE1
:10158800536EFD0EE3CF54F0000E542253C0E6FF15
:1015980054C0E6FF06EC0AF0FE0E49C0E3FFFF0E5A
:1015A8004AC0E3FFFE0EE3CF53F0FF0EE3CF54F043
:1015B8006E0E5302F3CF51F0F4CF52F05402F350B1
:1015C8005226C80E5124D96E000E5220DA6EDF5012
:1015D800D8A4C9D7FE0EE3CF49F0FF0EE3CF4AF0F7
:1015E800E552E5521200E6522D0EE66E000EE66E4A
:1015F80067EC08F083980604D8A426D02DD082BCC6
:10160800FED7829E2C0EE66E010EE66EF1EC0BF014
:1016180001C053F002C054F0030E5324D96E000EDB
:101628005420DA6EFF0EE3CFDFFF01C053F002C093
:1016380054F0030E5324D96E000E5420DA6E000EB7
:10164800DF6E014A022A828E02BED9D7025004E117
:10165800030E015CD8A0D3D7010E066E1D0EE66EF0
:10166800000EE66E69EC07F08388BED70D0EE66EB5
:10167800000EE66E67EC08F0839C829EF40EE66E20
:10168800010EE66EF1EC0BF0828EF40EE66E010EA2
:10169800E66EF1EC0BF083B283A402D083B6FBD7DD
:1016A800C80EE66E000EE66EF1EC0BF08CA202D0CE
:1016B800036A02D0010E036E83A402D0046A02D02A
:1016C800010E046E83A602D0056A02D0010E056ED3
:1016D800010E036E010E046E010E056EB00EE66E6D
:1016E800000EE66E69EC07F0838CC0D767EC0CF04F
:1016F8003EEC09F089EC0CF080EC0CF0EE0EE66E96
:10170800150EE66E050EE66E000EE66EDAEC05F0D6
:10171800340EE66E180EE66E040EE66E000EE66EE9
:10172800DAEC05F0740EE66E160EE66E050EE66E41
:10173800000EE66EDAEC05F0D40EE66E0F0EE66EDD
:10174800050EE66E000EE66EDAEC05F0440EE66E67
:10175800130EE66E040EE66E000EE66EDAEC05F089
:10176800000EE66E6EEC02F0FFD7F29EE150FC0F21
:10177800D96EE250DA6EFF0EDA22FE0EE3CFE9FFF1
:10178800FF0EE3CFEAFFDECFEEFFDDCFEDFFFE0E6B
:10179800E3CF53F0FF0EE3CF54F00C0E5324D96E71
:1017A800000E5420DA6E000EDE6E000EDD6EFE0EA8
:1017B800E3CF53F0FF0EE3CF54F00E0E5324D96E4F
:1017C800000E5420DA6E000EDE6E000EDD6EF28E14
:1017D800E552E552E552E5521200F29EE150FE0F45
:1017E800D96EE250DA6EFF0EDA2203EE56F0EECF33
:1017F80053F0EDCF54F06E0E5302F3CF51F0F4CF07
:1018080052F05402F35052262C0E5124E96E010E68
:101818005220EA6EDECFEEFFDDCFEDFF020EE66E60
:101828006EEC02F0F28EE552E55212001D0EE66EE5
:10183800000EE66E67EC08F0839A829E2C0EE66E28
:10184800010EE66EF1EC0BF0828EF40EE66E010EE0
:10185800E66EF1EC0BF082B082A202D082B4FBD724
:10186800C80EE66E000EE66EF1EC0BF00D0EE66E9D
:10187800000EE66E69EC07F0838AD8D72C0EF66E58
:10188800190EF76E000EF86E0900F5CF77F0090013
:10189800F5CF78F000EEC0F024EE98F0EE6ADD5057
:1018A800D950FCE1DA50FAE100EE80F0400EEE6A21
:1018B800E806FDE100EE01F0480EEE6AE806FDE1FB
:1018C80000017AEF0BF0D7EC08F0000EE8CF56F3E2
:1018D800000EE8CF57F3000EE8CF54F3000EE8CF20
:1018E80055F3280EE66E190EE66E000EE66E000E33
:1018F800E66EDAEC05F01200D59AD596070ED512E9
:10190800F28CF28AFC0ED66E12009590F28EF28856
:10191800F288F292F19EF19C1200AFEC0AF01200EC
:0619280000F0FED70A00EA
:020000040020DA
:08000000FFFFFFFFFFFFFFFF00
:020000040030CA
:0E000000FF071F1EFF8185FF0FC00FE00F409E
:00000001FF
